201711090130000400000000000000000204                8000000000020286327126Gomez Roberto Emiliano        000000001550000000000000000000000000000000000000000000000000000000000000000000000000000000000000000000000000000000000000PES00010000000A00000000000000000000000000000000000000000                              000000000000000
201803310030044000000000000000694413                8000000000030696170580Aeropuertos Argentina 2000 SA 000000002980428000000000000000000000000000000000000000000000000000000000000000000000118271000000000000000000000000000000PES00010000001000000000049673800000000000000000000000000                              000000000000000
201807110030000300000000000000001776                8000000000030597876080Teletex S.A.                  000000000696465000000000000000000000000000000000000000000000000000000000000000000000030150000000000000000000000000000000PES00010000001000000000006331500000000000000000000000000                              000000000000000
201807030030000500000000000000000099                8000000000030709869090Klinical SA                   000000003613611000000000000000000000000000000000000000000000000000000000000000000000000000000000000000000000000000000000PES00010000001000000000062715600000000000000000000000000                              000000000000000
201806120030000300000000000000001750                8000000000030597876080Teletex S.A.                  000000012118491000000000000000000000000000000000000000000000000000000000000000000000524610000000000000000000000000000000PES00010000001000000000110168100000000000000000000000000                              000000000000000
201806270010000800000000000000053479                8000000000030676560994Organizacion de Remises Univer000000001059840000000000000000000000001059840000000000000000000000000000000000000000000000000000000000000000000000000000PES00010000001E00000000000000000000000000000000000000000                              000000000000000
201806010010000500000000000000000963                8000000000030709869090Klinical SA                   000000015939643000000000000000000000000000000000000000000000000000000000000000000000632526000000000000000000000000000000PES00010000001000000000265660700000000000000000000000000                              000000000000000
201807030010000500000000000000001107                8000000000020272269662Pablo Buffoni Almeida         000000000316885000000000000000000000000021100000000000000000000000000000000000000000000000000000000000000000000000000000PES00010000001000000000005133500000000000000000000000000                              000000000000000
201807030010000500000000000000001110                8000000000020272269662Pablo Buffoni Almeida         000000000126070000000000000000000000000045000000000000000000000000000000000000000000000000000000000000000000000000000000PES00010000001000000000001407000000000000000000000000000                              000000000000000
201807020010000300000000000000000193                8000000000030710804091Emeh S.A.                     000000033185763000000000000000000000000000000000000000000000000000000000000000000000000000000000000000000000000000000000PES00010000001000000000575951300000000000000000000000000                              000000000000000
201806210010006000000000000000358651                8000000000030623608677Edenred Argentina SA          000000000007364000000000000000000000000000000000000000000000000000000000000000000000000292000000000000000000000000000000PES00010000001000000000000122700000000000000000000000000                              000000000000000
201806060010006000000000000000356464                8000000000030623608677Edenred Argentina SA          000000000008098000000000000000000000000000000000000000000000000000000000000000000000000321000000000000000000000000000000PES00010000001000000000000135000000000000000000000000000                              000000000000000
201806210010006000000000000000359609                8000000000030623608677Edenred Argentina SA          000000000020875000000000000000000000000000000000000000000000000000000000000000000000000828000000000000000000000000000000PES00010000001000000000000347900000000000000000000000000                              000000000000000
201806300010006000000000000000197194                8000000000030623608677Edenred Argentina SA          000000001072113000000000000000000000000221778000000000000000000000000000000000000000000000000000000000000000000000000000PES00010000001000000000014757900000000000000000000000000                              000000000000000
201806300990000000000000000000062018                8000000000020163353750Administración Alejandro Perez000000002341700000000002341700000000000000000000000000000000000000000000000000000000000000000000000000000000000000000000PES00010000001A00000000000000000000000000000000000000000                              000000000000000
201807030010003500000000000000621612                8000000000033692148229Staples Argentina SA          000000002750196000000000000000000000000000000000000000000000000000000000000000000000170557000000000000000000000000000000PES00010000001000000000044770600000000000000000000000000                              000000000000000
201807030010003500000000000000621688                8000000000033692148229Staples Argentina SA          000000000606391000000000000000000000000000000000000000000000000000000000000000000000037606000000000000000000000000000000PES00010000001000000000009871500000000000000000000000000                              000000000000000
201807050010003500000000000000622408                8000000000033692148229Staples Argentina SA          000000000378284000000000000000000000000000000000000000000000000000000000000000000000023459000000000000000000000000000000PES00010000001000000000006158100000000000000000000000000                              000000000000000
201807050010003500000000000000622410                8000000000033692148229Staples Argentina SA          000000000551678000000000000000000000000000000000000000000000000000000000000000000000034213000000000000000000000000000000PES00010000001000000000008980800000000000000000000000000                              000000000000000
201806270110000100000000000000000437                8000000000030629357005AAHI - Asociacion Argentina de000000004500000000000000000000000000000000000000000000000000000000000000000000000000000000000000000000000000000000000000PES00010000000A00000000000000000000000000000000000000000                              000000000000000
201807010010000400000000000000000216                8000000000020290419388Jorge Daniel Ayala            000000003505975000000000000000000000000000000000000000000000000000000000000000000000000000000000000000000000000000000000PES00010000001000000000060847500000000000000000000000000                              000000000000000
201807040010002600000000000000024553                8000000000030623295946Lavieri Sebastián y Lavieri Al000000000198756000000000000000000000000000000000000000000000000000000000000000000000000000000000000000000000000000000000PES00010000001000000000003449500000000000000000000000000                              000000000000000
201807040010002600000000000000024556                8000000000030623295946Lavieri Sebastián y Lavieri Al000000000226141000000000000000000000000000000000000000000000000000000000000000000000000000000000000000000000000000000000PES00010000001000000000003924800000000000000000000000000                              000000000000000
201807020010000400000000000000007106                8000000000030708862890Emetech S.A.                  000000000856863000000000000000000000000000000000000000000000000000000000000000000000054096000000000000000000000000000000PES00010000002000000000012656700000000000000000000000000                              000000000000000
201806290010000400000000000000026264                8000000000030692062309Huertas Del Plata SA          000000000136250000000000000000000000000000000000000000000000000000000000000000000000000000000000000000000000000000000000PES00010000002000000000001420400000000000000000000000000                              000000000000000
201807040010000400000000000000001688                8000000000030618978121Ing. Eduardo Szpiezak SRL     000000000302500000000000000000000000000000000000000000000000000000000000000000000000000000000000000000000000000000000000PES00010000001000000000005250000000000000000000000000000                              000000000000000
201806280010000200000000000000007427                8000000000033710567099MICHAEL PAGE INTERNATIONAL ARG000000006197237000000000000000000000000000000000000000000000000000000000000000000000149933000000000000000000000000000000PES00010000001000000000104953200000000000000000000000000                              000000000000000
201806180010000200000000000000001808                8000000000030699413514RABINOVICH Y ASOCIADOS        000000001035760000000000000000000000000000000000000000000000000000000000000000000000000000000000000000000000000000000000PES00010000001000000000017976000000000000000000000000000                              000000000000000
201807020010000200000000000000000109                8000000000030715612034Design Pharma SRL             000000011780737000000000000000000000000000000000000000000000000000000000000000000000000000000000000000000000000000000000PES00010000001000000000204459100000000000000000000000000                              000000000000000
201806010010001300000000000000035245                8000000000030685158341Chubb Argentina de Seguros SA 000000000132410000000000000000000000000064210000000000000000000000000000000000000000001650000000000000000000000000000000PES00010000001000000000001155000000000000000000000000000                              000000000000000
201806270010001300000000000000037462                8000000000030685158341Chubb Argentina de Seguros SA 000000000132410000000000000000000000000064210000000000000000000000000000000000000000001650000000000000000000000000000000PES00010000001000000000001155000000000000000000000000000                              000000000000000
201806010010001700000000000000014192                8000000000030685158341Chubb Argentina de Seguros SA 000000000069410000000000000000000000000001210000000000000000000000000000000000000000001650000000000000000000000000000000PES00010000001000000000001155000000000000000000000000000                              000000000000000
201806010010002100000000000000014149                8000000000030685158341Chubb Argentina de Seguros SA 000000000021388000000000000000000000000000401000000000000000000000000000000000000000000833000000000000000000000000000000PES00010000001000000000000349800000000000000000000000000                              000000000000000
201807020010002200000000000000075992                8000000000030682504052Iron Mountain Argentina SA    000000000757939000000000000000000000000000000000000000000000000000000000000000000000018337000000000000000000000000000000PES00010000001000000000012836100000000000000000000000000                              000000000000000
201807020990000000000000000000042018                8000000000030546741253OSDE                          000000007955808000000007955808000000000000000000000000000000000000000000000000000000000000000000000000000000000000000000PES00010000001A00000000000000000000000000000000000000000                              000000000000000
201806060010005700000000000000417469                8000000000033695098419Telmex Argentina SA           000000000199233000000000000000000000000000000000000000000000000000000000000000000000004598000000000000000000000000000000PES00010000001000000000004137900000000000000000000000000                              000000000000000
201807040010005700000000000000422732                8000000000033695098419Telmex Argentina SA           000000003763968000000000000000000000000000000000000000000000000000000000000000000000086861000000000000000000000000000000PES00010000001000000000078174700000000000000000000000000                              000000000000000
201807040020000300000000000000000127                8000000000030597876080Teletex S.A.                  000000001176714000000000000000000000000000000000000000000000000000000000000000000000050940000000000000000000000000000000PES00010000001000000000010697400000000000000000000000000                              000000000000000
201806110010209300000000000008952713                8000000000030678814357Telefonica Moviles Argentina S000000005784111000000000000000000000002532246000000000073775000000000000000000000000076007000000000000000000000000000000PES00010000002000000000064362600000000000000000000000000                              000000000000000
201807020110000400000000000000000299                8000000000020286327126Gomez Roberto Emiliano        000000001860000000000000000000000000000000000000000000000000000000000000000000000000000000000000000000000000000000000000PES00010000000A00000000000000000000000000000000000000000                              000000000000000
201806280010000200000000000000002785                8000000000030712262342Grafica Eldorado SRL          000000000212966000000000000000000000000000000000000000000000000000000000000000000000000000000000000000000000000000000000PES00010000001000000000003696100000000000000000000000000                              000000000000000
201807110990000000000000000000062018                8000000000030546741253OSDE                          000000006320827000000006320827000000000000000000000000000000000000000000000000000000000000000000000000000000000000000000PES00010000001A00000000000000000000000000000000000000000                              000000000000000
201806210010000400000000000000003821                8000000000030504603446DOLZ HNOS. S.R.L.             000000003799400000000000000000000000000000000000000000000000000000000000000000000000000000000000000000000000000000000000PES00010000001000000000065940000000000000000000000000000                              000000000000000
201807040110000100000000000000000387                8000000000027344022300MARTINA NOGUEIRA PEREZ        000000000600000000000000000000000000000000000000000000000000000000000000000000000000000000000000000000000000000000000000PES00010000000A00000000000000000000000000000000000000000                              000000000000000
201806180010000300000000000000036008                8000000000030702955285Quimca Fenix S.A              000000000127008000000000000000000000000000000000000000000000000000000000000000000000005040000000000000000000000000000000PES00010000001000000000002116800000000000000000000000000                              000000000000000
201807020010000300000000000000036354                8000000000030702955285Quimca Fenix S.A              000000000585295000000000000000000000000000000000000000000000000000000000000000000000023226000000000000000000000000000000PES00010000001000000000009754900000000000000000000000000                              000000000000000
201807030010000300000000000000036384                8000000000030702955285Quimca Fenix S.A              000000000208656000000000000000000000000000000000000000000000000000000000000000000000008280000000000000000000000000000000PES00010000001000000000003477600000000000000000000000000                              000000000000000
201806210010003100000000000000036112                8000000000030702955285Quimca Fenix S.A              000000000284256000000000000000000000000000000000000000000000000000000000000000000000011280000000000000000000000000000000PES00010000001000000000004737600000000000000000000000000                              000000000000000
201806280010000200000000000000003090                8000000000030656417508Tecno Electronica de Proteccio000000001152216000000000000000000000000000000000000000000000000000000000000000000000000000000000000000000000000000000000PES00010000001000000000019997100000000000000000000000000                              000000000000000
201806190010834000000000000000869130                8000000000030639453738Telecom Argentina SA          000000000117595000000000000000000000000117595000000000000000000000000000000000000000000000000000000000000000000000000000PES00010000001E00000000000000000000000000000000000000000                              000000000000000
201806300010006000000000000000360951                8000000000030623608677Edenred Argentina SA          000000000016559000000000000000000000000000000000000000000000000000000000000000000000000657000000000000000000000000000000PES00010000001000000000000276000000000000000000000000000                              000000000000000
201807040010006000000000000000361745                8000000000030623608677Edenred Argentina SA          000000000007559000000000000000000000000000000000000000000000000000000000000000000000000300000000000000000000000000000000PES00010000001000000000000126000000000000000000000000000                              000000000000000
201711300010500200000000000000067290                8000000000030517050225Aguas Danone de Argentina SA  000000000066951000000000000000000000000000000000000000000000000000000000000000000000004152000000000000000000000000000000PES00010000001000000000001089900000000000000000000000000                              000000000000000
201711300010500200000000000000067291                8000000000030517050225Aguas Danone de Argentina SA  000000000066951000000000000000000000000000000000000000000000000000000000000000000000004152000000000000000000000000000000PES00010000001000000000001089900000000000000000000000000                              000000000000000
201712290010500200000000000000097080                8000000000030517050225Aguas Danone de Argentina SA  000000000070790000000000000000000000000000000000000000000000000000000000000000000000004390000000000000000000000000000000PES00010000001000000000001152400000000000000000000000000                              000000000000000
201712290010500200000000000000097079                8000000000030517050225Aguas Danone de Argentina SA  000000000070790000000000000000000000000000000000000000000000000000000000000000000000004390000000000000000000000000000000PES00010000001000000000001152400000000000000000000000000                              000000000000000
201711300010500200000000000000067292                8000000000030517050225Aguas Danone de Argentina SA  000000000023867000000000000000000000000000000000000000000000000000000000000000000000001567000000000000000000000000000000PES00010000001000000000000387000000000000000000000000000                              000000000000000
201712290010500200000000000000098120                8000000000030517050225Aguas Danone de Argentina SA  000000000023867000000000000000000000000000000000000000000000000000000000000000000000001567000000000000000000000000000000PES00010000001000000000000387000000000000000000000000000                              000000000000000
201801310010500200000000000000128679                8000000000030517050225Aguas Danone de Argentina SA  000000000023867000000000000000000000000000000000000000000000000000000000000000000000001567000000000000000000000000000000PES00010000001000000000000387000000000000000000000000000                              000000000000000
201802270010500200000000000000156034                8000000000030517050225Aguas Danone de Argentina SA  000000000017698000000000000000000000000000000000000000000000000000000000000000000000001098000000000000000000000000000000PES00010000001000000000000288100000000000000000000000000                              000000000000000
201802270010500200000000000000156035                8000000000030517050225Aguas Danone de Argentina SA  000000000053093000000000000000000000000000000000000000000000000000000000000000000000003293000000000000000000000000000000PES00010000001000000000000864300000000000000000000000000                              000000000000000
201802270010500200000000000000158317                8000000000030517050225Aguas Danone de Argentina SA  000000000023867000000000000000000000000000000000000000000000000000000000000000000000001567000000000000000000000000000000PES00010000001000000000000387000000000000000000000000000                              000000000000000
201803280010500200000000000000187228                8000000000030517050225Aguas Danone de Argentina SA  000000000070790000000000000000000000000000000000000000000000000000000000000000000000004390000000000000000000000000000000PES00010000001000000000001152400000000000000000000000000                              000000000000000
201803280010500200000000000000187229                8000000000030517050225Aguas Danone de Argentina SA  000000000070790000000000000000000000000000000000000000000000000000000000000000000000004390000000000000000000000000000000PES00010000001000000000001152400000000000000000000000000                              000000000000000
201803280010500200000000000000188347                8000000000030517050225Aguas Danone de Argentina SA  000000000023867000000000000000000000000000000000000000000000000000000000000000000000001567000000000000000000000000000000PES00010000001000000000000387000000000000000000000000000                              000000000000000
201804260010500200000000000000215370                8000000000030517050225Aguas Danone de Argentina SA  000000000070790000000000000000000000000000000000000000000000000000000000000000000000004390000000000000000000000000000000PES00010000001000000000001152400000000000000000000000000                              000000000000000
201804260010500200000000000000215371                8000000000030517050225Aguas Danone de Argentina SA  000000000070790000000000000000000000000000000000000000000000000000000000000000000000004390000000000000000000000000000000PES00010000001000000000001152400000000000000000000000000                              000000000000000
201804260010500200000000000000215372                8000000000030517050225Aguas Danone de Argentina SA  000000000023867000000000000000000000000000000000000000000000000000000000000000000000001567000000000000000000000000000000PES00010000001000000000000387000000000000000000000000000                              000000000000000
201807270010500200000000000000216763                8000000000030517050225Aguas Danone de Argentina SA  000000000074201000000000000000000000000000000000000000000000000000000000000000000000004602000000000000000000000000000000PES00010000001000000000001207900000000000000000000000000                              000000000000000
201805300010500200000000000000241287                8000000000030517050225Aguas Danone de Argentina SA  000000000172269000000000000000000000000000000000000000000000000000000000000000000000010770000000000000000000000000000000PES00010000001000000000002802900000000000000000000000000                              000000000000000
201806280010500200000000000000262865                8000000000030517050225Aguas Danone de Argentina SA  000000000102757000000000000000000000000000000000000000000000000000000000000000000000006459000000000000000000000000000000PES00010000001000000000001671300000000000000000000000000                              000000000000000
201807100010100000000000000000053060                8000000000030614587144KPMG                          000000004386000000000000000000000000000000000000000000000000000000000000000000000000272000000000000000000000000000000000PES00010000001000000000071400000000000000000000000000000                              000000000000000
201807120010000200000000000000001555                8000000000030714395218Servicios P y T SA            000000008011652000000000000000000000000000000000000000000000000000000000000000000000000000000000000000000000000000000000PES00010000001000000000139045200000000000000000000000000                              000000000000000
201807100010000400000000000000026320                8000000000030692062309Huertas Del Plata SA          000000000106450000000000000000000000000000000000000000000000000000000000000000000000000000000000000000000000000000000000PES00010000002000000000001137200000000000000000000000000                              000000000000000
201807100010000800000000000000054119                8000000000030676560994Organizacion de Remises Univer000000001270080000000000000000000000001270080000000000000000000000000000000000000000000000000000000000000000000000000000PES00010000001E00000000000000000000000000000000000000000                              000000000000000
201807020010000300000000000000001139                8000000000030710061447SC Signature Argentina S.A.   000000006016894000000000000000000000000000000000000000000000000000000000000000000000000000000000000000000000000000000000PES00010000001000000000104425400000000000000000000000000                              000000000000000
201807050010050000000000000000803759                8000000000030580111315DHL Express (Argentina) SA    000000000499800000000000000000000000000420077000000000000000000000000000000000000000036465000000000000000000000000000000PES00010000001000000000000750800000000000000000000000000                              000000000000000
201806280010001400000000000005577126                8000000000030655116202Empresa distribuidora y comerc000000000558884000000000000000000000000026745000000000000000000000000000000000000000000000000000000000000000000000000000PES00010000001000000000011313200000000000000000000000000                              000000000000000
201806280010001400000000000005579728                8000000000030655116202Empresa distribuidora y comerc000000000173147000000000000000000000000008286000000000000000000000000000000000000000000000000000000000000000000000000000PES00010000001000000000003504900000000000000000000000000                              000000000000000
201806280010001400000000000005580799                8000000000030655116202Empresa distribuidora y comerc000000000166472000000000000000000000000007966000000000000000000000000000000000000000000000000000000000000000000000000000PES00010000001000000000003369800000000000000000000000000                              000000000000000
201806280010001400000000000005581283                8000000000030655116202Empresa distribuidora y comerc000000000170922000000000000000000000000008179000000000000000000000000000000000000000000000000000000000000000000000000000PES00010000001000000000003459900000000000000000000000000                              000000000000000
201807030010000500000000000000000988                8000000000030709869090Klinical SA                   000000027907697000000000000000000000000000000000000000000000000000000000000000000001107448000000000000000000000000000000PES00010000001000000000465128300000000000000000000000000                              000000000000000
201807030010000500000000000000000989                8000000000030709869090Klinical SA                   000000017487556000000000000000000000000000000000000000000000000000000000000000000000693951000000000000000000000000000000PES00010000001000000000291459300000000000000000000000000                              000000000000000
201807030010000500000000000000000990                8000000000030709869090Klinical SA                   000000015939643000000000000000000000000000000000000000000000000000000000000000000000632526000000000000000000000000000000PES00010000001000000000265660700000000000000000000000000                              000000000000000
201806300990000000000000000000062018                8000000000030671375900Banco de Formosa S.A.         000000000152402000000000105212000000000000000000000000000000000000000000000000000000000000000000000000000000000000000000PES00010000001000000000000819000000000000000000000000000                              000000000000000
201806300990000000000000000000062018                8000000000030999032083Banco de la Ciudad de Buenos A000000001322306000000000721831000000000000000000000000000000000000000000000000000000545474000000000000000000000000000000PES00010000001000000000000954600000000000000000000000000                              000000000000000
201806300990000000000000000000062018                8000000000033999242109Banco Provincia de Buenos Aire000000000054346000000000052915000000000000000000000000000000000000000000000000000000001431000000000000000000000000000000PES00010000001A00000000000000000000000000000000000000000                              000000000000000
201806300990000000000000000000062018                8000000000030500014047Banco Provincia del Neuquen S.000000000220523000000000050971000000000000000000000000000000000000000000000000000000038017000000000000000000000000000000PES00010000001000000000002282800000000000000000000000000                              000000000000000
20180523066000000000000000000000000018073EC01014237P8000000000033693450239AFIP                          000000000463772000000000000000000000000000000000000000000000000000000463772000000000000000000000000000000000000000000000PES00010000001X00000000000000000000000000000000000000000                              000000000000000
201807110010000500000000000000001111                8000000000020272269662Pablo Buffoni Almeida         000000000269527000000000000000000000000094500000000000000000000000000000000000000000000000000000000000000000000000000000PES00010000001000000000003037700000000000000000000000000                              000000000000000
201807160010000400000000000000001520                8000000000033710325109LQNET S.A                     000000001198063000000000000000000000000000000000000000000000000000000000000000000000028985000000000000000000000000000000PES00010000001000000000020289800000000000000000000000000                              000000000000000
201807100010000200000000000000002533                8000000000030707897941Universal Vans S.A.           000000001695180000000000000000000000000024000000000000000000000000000000000000000000000000000000000000000000000000000000PES00010000001000000000015880000000000000000000000000000                              000000000000000
201805020010000200000000000001301321                8000000000030500055053Fianzas y Credito SA          000000000063100000000000000000000000000001100000000000000000000000000000000000000000001500000000000000000000000000000000PES00010000001000000000001050000000000000000000000000000                              000000000000000
201806230010010600000000000002699683                8000000000030709565075Agua y Saneamientos Arg SA    000000000103681000000000000000000000000103681000000000000000000000000000000000000000000000000000000000000000000000000000PES00010000001E00000000000000000000000000000000000000000                              000000000000000
201806300990000000000000000000062018                8000000000030500005625Citibank N.A.                 000000025598678000000018385213000000000000000000000000000000000000000000000000000005379340000000000000000000000000000000PES00010000001000000000031831900000000000000000000000000                              000000000000000
201807010990000000000000000000062018                8000000000030574816870American Express Argentina SA 000000000112500000000000000000000000000000000000000000002700000000000000000000000000000900000000000000000000000000000000PES00010000001000000000001890000000000000000000000000000                              000000000000000
201807110010006000000000000000362680                8000000000030623608677Edenred Argentina SA          000000000038347000000000000000000000000000000000000000000000000000000000000000000000001522000000000000000000000000000000PES00010000001000000000000639100000000000000000000000000                              000000000000000
201807110010006000000000000000363953                8000000000030623608677Edenred Argentina SA          000000000006997000000000000000000000000000000000000000000000000000000000000000000000000278000000000000000000000000000000PES00010000001000000000000116600000000000000000000000000                              000000000000000
201807190010000300000000000000000895                8000000000020174756296Torres Carlos Daniel          000000006485600000000000000000000000000000000000000000000000000000000000000000000000000000000000000000000000000000000000PES00010000001000000000112560000000000000000000000000000                              000000000000000
201807190010000300000000000000000896                8000000000020174756296Torres Carlos Daniel          000000001004300000000000000000000000000000000000000000000000000000000000000000000000000000000000000000000000000000000000PES00010000001000000000017430000000000000000000000000000                              000000000000000
201807170010000200000000000000001824                8000000000030699413514RABINOVICH Y ASOCIADOS        000000000701800000000000000000000000000000000000000000000000000000000000000000000000000000000000000000000000000000000000PES00010000001000000000012180000000000000000000000000000                              000000000000000
201807160010000700000000000000058730                8000000000030616044210External Market S.R.L.        000000001018714000000000000000000000000000000000000000000000000000000000000000000000000000000000000000000000000000000000PES00010000001000000000017680200000000000000000000000000                              000000000000000
201807130010002600000000000000024729                8000000000030623295946Lavieri Sebastián y Lavieri Al000000000811946000000000000000000000000000000000000000000000000000000000000000000000000000000000000000000000000000000000PES00010000001000000000014091600000000000000000000000000                              000000000000000
201806280010000600000000000000020317                8000000000030657891823EAFF S.A.                     000000001398987000000000000000000000000000836000000000000000000000000000000000000000055482000000000000000000000000000000PES00010000001000000000023302500000000000000000000000000                              000000000000000
201806300010000200000000000000007461                8000000000033710567099MICHAEL PAGE INTERNATIONAL ARG000000006197237000000000000000000000000000000000000000000000000000000000000000000000149933000000000000000000000000000000PES00010000001000000000104953200000000000000000000000000                              000000000000000
201807110110000200000000000000000122                8000000000027308926481Romina Eva Pérez Escorihuela  000000000318400000000000000000000000000000000000000000000000000000000000000000000000000000000000000000000000000000000000PES00010000000A00000000000000000000000000000000000000000                              000000000000000
201807250990000000000000000000032018                8000000000030546741253OSDE                          000000000503812000000000503812000000000000000000000000000000000000000000000000000000000000000000000000000000000000000000PES00010000001A00000000000000000000000000000000000000000                              000000000000000
201807160150001100000000000001358643                8000000000030663140996ANMAT                         000000000360000000000000000000000000000000000000000000000000000000000000000000000000000000000000000000000000000000000000PES00010000000A00000000000000000000000000000000000000000                              000000000000000
201806120010000300000000000000028763                8000000000030597876080Teletex S.A.                  000000012474000000000000000000000000000000000000000000000000000000000000000000000000540000000000000000000000000000000000PES00010000001000000000113400000000000000000000000000000                              000000000000000
201807050010005700000000000000435277                8000000000033695098419Telmex Argentina SA           000000004232956000000000000000000000000000000000000000000000000000000000000000000000097684000000000000000000000000000000PES00010000001000000000087915200000000000000000000000000                              000000000000000
201807020010005700000000000000431319                8000000000033695098419Telmex Argentina SA           000000000220307000000000000000000000000000000000000000000000000000000000000000000000005084000000000000000000000000000000PES00010000001000000000004575600000000000000000000000000                              000000000000000
201804110010185900000000000000009605                8000000000030678814357Telefonica Moviles Argentina S000000000268991000000000000000-00000001280909000000000000000000000000000000000000000000000000000000000000000000000000000PES00010000001000000000026899100000000000000000000000000                              000000000000000
201801290010256000000000000000400215                8000000000030678814357Telefonica Moviles Argentina S000000000230293000000000000000-00000000959554000000000028787000000000000000000000000000000000000000000000000000000000000PES00010000001000000000020150600000000000000000000000000                              000000000000000
201807110010209300000000000009088996                8000000000030678814357Telefonica Moviles Argentina S000000002815893000000000000000000000000000000000000000063923000000000000000000000000066155000000000000000000000000000000PES00010000002000000000055575600000000000000000000000000                              000000000000000
201804190010834000000000000000554399                8000000000030639453738Telecom Argentina SA          000000000137196000000000000000000000000000000000000000000000000000000000000000000000003319000000000000000000000000000000PES00010000001000000000002323500000000000000000000000000                              000000000000000
201806190010834000000000000000849419                8000000000030639453738Telecom Argentina SA          000000000147954000000000000000000000000000000000000000000000000000000000000000000000003580000000000000000000000000000000PES00010000001000000000002505700000000000000000000000000                              000000000000000
201805190010834000000000000000700133                8000000000030639453738Telecom Argentina SA          000000000137196000000000000000000000000000000000000000000000000000000000000000000000003319000000000000000000000000000000PES00010000001000000000002323500000000000000000000000000                              000000000000000
201803280010001400000000000005160134                8000000000030655116202Empresa distribuidora y comerc000000000172820000000000000000000000000008270000000000000000000000000000000000000000000000000000000000000000000000000000PES00010000001000000000003498300000000000000000000000000                              000000000000000
201803280010001400000000000005161285                8000000000030655116202Empresa distribuidora y comerc000000000222451000000000000000000000000010645000000000000000000000000000000000000000000000000000000000000000000000000000PES00010000001000000000004503000000000000000000000000000                              000000000000000
201803280010001400000000000005161657                8000000000030655116202Empresa distribuidora y comerc000000000831404000000000000000000000000039788000000000000000000000000000000000000000000000000000000000000000000000000000PES00010000001000000000016829600000000000000000000000000                              000000000000000
201803280010001400000000000005163930                8000000000030655116202Empresa distribuidora y comerc000000000287510000000000000000000000000013759000000000000000000000000000000000000000000000000000000000000000000000000000PES00010000001000000000005819900000000000000000000000000                              000000000000000
201804300010001400000000000005299224                8000000000030655116202Empresa distribuidora y comerc000000000173925000000000000000000000000008323000000000000000000000000000000000000000000000000000000000000000000000000000PES00010000001000000000003520700000000000000000000000000                              000000000000000
201804300010001400000000000005300119                8000000000030655116202Empresa distribuidora y comerc000000000224355000000000000000000000000010736000000000000000000000000000000000000000000000000000000000000000000000000000PES00010000001000000000004541500000000000000000000000000                              000000000000000
201804300010001400000000000005301978                8000000000030655116202Empresa distribuidora y comerc000000000838906000000000000000000000000040146000000000000000000000000000000000000000000000000000000000000000000000000000PES00010000001000000000016981500000000000000000000000000                              000000000000000
201807230010000400000000000000026366                8000000000030692062309Huertas Del Plata SA          000000000109700000000000000000000000000000000000000000000000000000000000000000000000000000000000000000000000000000000000PES00010000002000000000001168100000000000000000000000000                              000000000000000
201807250010000800000000000000054847                8000000000030676560994Organizacion de Remises Univer000000000546580000000000000000000000000546580000000000000000000000000000000000000000000000000000000000000000000000000000PES00010000001E00000000000000000000000000000000000000000                              000000000000000
201807200010000500000000000000001125                8000000000020272269662Pablo Buffoni Almeida         000000000048137000000000000000000000000005000000000000000000000000000000000000000000000000000000000000000000000000000000PES00010000001000000000000748700000000000000000000000000                              000000000000000
201807200010000500000000000000001126                8000000000020272269662Pablo Buffoni Almeida         000000000158540000000000000000000000000008500000000000000000000000000000000000000000000000000000000000000000000000000000PES00010000001000000000002604000000000000000000000000000                              000000000000000
201804170010001400000000000005252295                8000000000030655116202Empresa distribuidora y comerc000000002838766000000000000000000000000135849000000000000000000000000000000000000000000000000000000000000000000000000000PES00010000001000000000057463600000000000000000000000000                              000000000000000
201807210010001400000000000005671613                8000000000030655116202Empresa distribuidora y comerc000000002931987000000000000000000000000140310000000000000000000000000000000000000000000000000000000000000000000000000000PES00010000001000000000059350600000000000000000000000000                              000000000000000
201806180010001400000000000005527842                8000000000030655116202Empresa distribuidora y comerc000000002875861000000000000000000000000137623000000000000000000000000000000000000000000000000000000000000000000000000000PES00010000001000000000058214500000000000000000000000000                              000000000000000
201802180010834000000000000000288385                8000000000030639453738Telecom Argentina SA          000000000238546000000000000000000000000000000000000000000000000000000000000000000000005771000000000000000000000000000000PES00010000001000000000004039900000000000000000000000000                              000000000000000
201803200010001400000000000005119512                8000000000030655116202Empresa distribuidora y comerc000000003121691000000000000000000000000149388000000000000000000000000000000000000000000000000000000000000000000000000000PES00010000001000000000063190700000000000000000000000000                              000000000000000
201805170010001400000000000005391804                8000000000030655116202Empresa distribuidora y comerc000000002903596000000000000000000000000138951000000000000000000000000000000000000000000000000000000000000000000000000000PES00010000001000000000058775900000000000000000000000000                              000000000000000
201804190010834000000000000000579417                8000000000030639453738Telecom Argentina SA          000000000138603000000000000000000000000000000000000000000000000000000000000000000000003353000000000000000000000000000000PES00010000001000000000002347300000000000000000000000000                              000000000000000
201805190010834000000000000000722935                8000000000030639453738Telecom Argentina SA          000000000138603000000000000000000000000000000000000000000000000000000000000000000000003353000000000000000000000000000000PES00010000001000000000002347300000000000000000000000000                              000000000000000
201804280010010600000000000002576286                8000000000030709565075Agua y Saneamientos Arg SA    000000000082929000000000000000000000000082929000000000000000000000000000000000000000000000000000000000000000000000000000PES00010000001E00000000000000000000000000000000000000000                              000000000000000
201805290030044000000000000000691684                8000000000030696170580Aeropuertos Argentina 2000 SA 000000003574072000000000000000000000000000000000000000000000000000000000000000000000141828000000000000000000000000000000PES00010000001000000000059567900000000000000000000000000                              000000000000000
201805300010044000000000000000780846                8000000000030696170580Aeropuertos Argentina 2000 SA 000000002329891000000000000000000000000000000000000000000000000000000000000000000000092456000000000000000000000000000000PES00010000001000000000038831500000000000000000000000000                              000000000000000
20180523066000000000000000000000000018073IC04085326G8000000000033693450239AFIP                          000000028294212-00000058975913000000000000000000000000000000000000004035603000000001849650000000000000000000000000000000PES00010000001000000001412464700000000000000000000000000                              000000000000000
201806060010000600000000000000019935                8000000000030657891823EAFF S.A.                     000000001042873000000000000000000000000028775000000000000000000000000000000000000000040242000000000000000000000000000000PES00010000001000000000016901600000000000000000000000000                              000000000000000
201804070010000600000000000000018909                8000000000030657891823EAFF S.A.                     000000000876684000000000000000000000000007235000000000000000000000000000000000000000034502000000000000000000000000000000PES00010000001000000000014490800000000000000000000000000                              000000000000000
201804250990000000000000000000001444                8000000000055000000018TerumoBCT Inc FTZ Branch      000000026673584000000026673584000000000000000000000000000000000000000000000000000000000000000000000000000000000000000000PES00010000001X00000000000000000000000000000000000000000                              000000000000000
201806250990000000000000000000001649                8000000000055000000018TerumoBCT Inc FTZ Branch      000000255000000000000255000000000000000000000000000000000000000000000000000000000000000000000000000000000000000000000000PES00010000001X00000000000000000000000000000000000000000                              000000000000000
201807020990000000000000000000001665                8000000000055000000018TerumoBCT Inc FTZ Branch      000000003133564000000003133564000000000000000000000000000000000000000000000000000000000000000000000000000000000000000000PES00010000001X00000000000000000000000000000000000000000                              000000000000000
201807050010050000000000000000802008                8000000000030580111315DHL Express (Argentina) SA    000000002807685000000000000000000000002547860000000000000000000000000000000000000000207293000000000000000000000000000000PES00010000001000000000000911700000000000000000000000000                              000000000000000
201804280010001800000000000000017530                8000000000030584715932DHL Global Forwarding Argentin000000029335602000000000000000000000027294912000000000000000000000000000000000000000126534000000000000000000000000000000PES00010000001000000000033221800000000000000000000000000                              000000000000000
201806270010001800000000000000020717                8000000000030584715932DHL Global Forwarding Argentin000000009546602000000000000000000000007381890000000000000000000000000000000000000000134219000000000000000000000000000000PES00010000001000000000035241100000000000000000000000000                              000000000000000
201806070010001800000000000000019383                8000000000030584715932DHL Global Forwarding Argentin000000002478319000000000000000000000000000000000000000000000000000000000000000000000153669000000000000000000000000000000PES00010000001000000000040346200000000000000000000000000                              000000000000000
20180627066000000000000000000000000018001IC04141292P8000000000033693450239AFIP                          000000016426367-00000034198714000000000000000000000000000000000000002341034000000001072970000000000000000000000000000000PES00010000001000000000819365800000000000000000000000000                              000000000000000
201806120990000000000000000000000976                8000000000055000000018TerumoBCT Inc FTZ Branch      000000225090835000000225090835000000000000000000000000000000000000000000000000000000000000000000000000000000000000000000PES00010000001X00000000000000000000000000000000000000000                              000000000000000
201807030990000000000000000000001679                8000000000055000000018TerumoBCT Inc FTZ Branch      000000060828757000000060828757000000000000000000000000000000000000000000000000000000000000000000000000000000000000000000PES00010000001X00000000000000000000000000000000000000000                              000000000000000
201807030990000000000000000000001680                8000000000055000000018TerumoBCT Inc FTZ Branch      000000058758028000000058758028000000000000000000000000000000000000000000000000000000000000000000000000000000000000000000PES00010000001X00000000000000000000000000000000000000000                              000000000000000
201806190010001800000000000000020143                8000000000030584715932DHL Global Forwarding Argentin000000011243582000000000000000000000007944864000000000000000000000000000000000000000204556000000000000000000000000000000PES00010000001000000000053699300000000000000000000000000                              000000000000000
