201808060190000500000000000000000060000000000000000000608000000000055000000018Terumo BCT Inc. suc           000000011953552000000000000000000000000000000000000011953552000000000000000000000000000000000000000000000000000000000000PES00010000001X00000000000000000000000
201808080210000500000000000000000010000000000000000000108000000000055000000018Terumo BCT Inc. suc           000000011986301000000000000000000000000000000000000011986301000000000000000000000000000000000000000000000000000000000000PES00010000001E00000000000000000000000
201808080190000500000000000000000061000000000000000000618000000000055000000018Terumo BCT Inc. suc           000000011986301000000000000000000000000000000000000011986301000000000000000000000000000000000000000000000000000000000000PES00010000001X00000000000000000000000
201808010010000400000000000000003652000000000000000036528000000000030691314398Servicios de Medicina Transfus000000005082000000000000000000000000000000000000000000000000000000000000000000000000000000000000000000000000000000000000PES00010000001000000000000000000000000
201808010010000400000000000000003653000000000000000036538000000000030654752636Laboratorio de Analisis Clinic000000003267000000000000000000000000000000000000000000000000000000000000000000000000000000000000000000000000000000000000PES00010000001000000000000000000000000
201808010010000400000000000000003654000000000000000036548000000000030654855168Swiss Medical S.A.            000000007759125000000000000000000000000000000000000000000000000000000000000000000000000000000000000000000000000000000000PES00010000001000000000000000000000000
201808010060000400000000000000001818000000000000000018188000000000030654855168Swiss Medical S.A.            000000007759100000000000000000000000000000000000000000000000000000000000000000000000000000000000000000000000000000000000PES00010000001000000000000000000000000
201808010010000400000000000000003655000000000000000036558000000000030681994234Medicina Transfusional Y Hemat000000004835160000000000000000000000000000000000000000000000000000000000000000000000000000000000000000000000000000000000PES00010000001000000000000000000000000
201808020010000400000000000000003656000000000000000036568000000000030691314398Servicios de Medicina Transfus000000005082000000000000000000000000000000000000000000000000000000000000000000000000000000000000000000000000000000000000PES00010000001000000000000000000000000
201808020060000400000000000000001819000000000000000018198000000000030545902962Congregacion Hijas de San Cami000000002041875000000000000000000000000000000000000000000000000000000000000000000000000000000000000000000000000000000000PES00010000001000000000000000000000000
201808020010000400000000000000003657000000000000000036578000000000030714908533S.Q.M.T. S.R.L.               000000008494200000000000000000000000000000000000000000000000000000000000000000000000000000000000000000000000000000000000PES00010000001000000000000000000000000
201808020010000400000000000000003658000000000000000036588000000000030594950913Asoc. Civil de Estudios Superi000000025410000000000000000000000000000000000000000000000000000000000000000000000000000000000000000000000000000000000000PES00010000001000000000000000000000000
201808020010000400000000000000003659000000000000000036598000000000030545867679SOC. ITALIANA DE BENEF. EN BS.000000064795500000000000000000000000000000000000000000000000000000000000000000000000000000000000000000000000000000000000PES00010000001000000000000000000000000
201808020030000400000000000000000099000000000000000000998000000000030545867679SOC. ITALIANA DE BENEF. EN BS.000000064795500000000000000000000000000000000000000000000000000000000000000000000000000000000000000000000000000000000000PES00010000001000000000000000000000000
201808020060000400000000000000001820000000000000000018208000000000034999032089Gobierno de la Ciudad de Bs. A000000027678600000000000000000000000000000000000000000000000000000000000000000000000000000000000000000000000000000000000PES00010000001000000000000000000000000
201808020060000400000000000000001821000000000000000018218000000000030626983398Mrio. de Salud de la Provincia000000011581200000000000000000000000000000000000000000000000000000000000000000000000000000000000000000000000000000000000PES00010000001000000000000000000000000
201808030080000400000000000000000100000000000000000001008000000000030626983398Mrio. de Salud de la Provincia000000007720800000000000000000000000000000000000000000000000000000000000000000000000000000000000000000000000000000000000PES00010000001000000000000000000000000
201808030010000400000000000000003660000000000000000036608000000000033559768869Fundacion Favaloro            000000002831400000000000000000000000000000000000000000000000000000000000000000000000000000000000000000000000000000000000PES00010000001000000000000000000000000
201808030010000400000000000000003661000000000000000036618000000000030545867679SOC. ITALIANA DE BENEF. EN BS.000000027225000000000000000000000000000000000000000000000000000000000000000000000000000000000000000000000000000000000000PES00010000001000000000000000000000000
201808030060000400000000000000001822000000000000000018228000000000030710847351Hospital de Alta Complejidad E000000004096200000000000000000000000000000000000000000000000000000000000000000000000000000000000000000000000000000000000PES00010000001000000000000000000000000
201808030060000400000000000000001823000000000000000018238000000000030710847351Hospital de Alta Complejidad E000000005461600000000000000000000000000000000000000000000000000000000000000000000000000000000000000000000000000000000000PES00010000001000000000000000000000000
201808060010000400000000000000003662000000000000000036628000000000030715681710Haplotipos S.A.               000000004719000000000000000000000000000000000000000000000000000000000000000000000000000000000000000000000000000000000000PES00010000001000000000000000000000000
201808060010000400000000000000003663000000000000000036638000000000030637850144Open Trade S.A.               000000030855000000000000000000000000000000000000000000000000000000000000000000000000000000000000000000000000000000000000PES00010000001000000000000000000000000
201808070010000400000000000000003664000000000000000036648000000000030546057328Sanatorio Parque S.A.         000000003267000000000000000000000000000000000000000000000000000000000000000000000000000000000000000000000000000000000000PES00010000001000000000000000000000000
201808070060000400000000000000001824000000000000000018248000000000034999032089Gobierno de la Ciudad de Bs. A000000028459200000000000000000000000000000000000000000000000000000000000000000000000000000000000000000000000000000000000PES00010000001000000000000000000000000
201808070010000400000000000000003665000000000000000036658000000000030708637579Biotecnologica S.R.L.         000000007114800000000000000000000000000000000000000000000000000000000000000000000000000000000000000000000000000000000000PES00010000001000000000000000000000000
201808080060000400000000000000001825000000000000000018258000000000030626983398Mrio. de Salud de la Provincia000000007720800000000000000000000000000000000000000000000000000000000000000000000000000000000000000000000000000000000000PES00010000001000000000000000000000000
201808080010000400000000000000003666000000000000000036668000000000020132553239Brunetti Osvaldo Jose Alfredo 000000004083750000000000000000000000000000000000000000000000000000000000000000000000000000000000000000000000000000000000PES00010000001000000000000000000000000
201808080010000400000000000000003667000000000000000036678000000000020132553239Brunetti Osvaldo Jose Alfredo 000000002041875000000000000000000000000000000000000000000000000000000000000000000000000000000000000000000000000000000000PES00010000001000000000000000000000000
201808080010000400000000000000003668000000000000000036688000000000030546017784Sanatorio de Niños S.A.       000000008167500000000000000000000000000000000000000000000000000000000000000000000000000000000000000000000000000000000000PES00010000001000000000000000000000000
201808080010000400000000000000003669000000000000000036698000000000030691314398Servicios de Medicina Transfus000000005082000000000000000000000000000000000000000000000000000000000000000000000000000000000000000000000000000000000000PES00010000001000000000000000000000000
201808080060000400000000000000001826000000000000000018268000000000030615915544Hospital de Pediatria S.A.M.I.000000000571725000000000000000000000000000000000000000000000000000000000000000000000000000000000000000000000000000000000PES00010000001000000000000000000000000
201808080080000400000000000000000101000000000000000001018000000000030615915544Hospital de Pediatria S.A.M.I.000000000571725000000000000000000000000000000000000000000000000000000000000000000000000000000000000000000000000000000000PES00010000001000000000000000000000000
201808080010000400000000000000003670000000000000000036708000000000030714908533S.Q.M.T. S.R.L.               000000006806250000000000000000000000000000000000000000000000000000000000000000000000000000000000000000000000000000000000PES00010000001000000000000000000000000
201808080010000400000000000000003671000000000000000036718000000000030714908533S.Q.M.T. S.R.L.               000000009438000000000000000000000000000000000000000000000000000000000000000000000000000000000000000000000000000000000000PES00010000001000000000000000000000000
201808090010000400000000000000003672000000000000000036728000000000033559768869Fundacion Favaloro            000000009589008000000000000000000000000000000000000000000000000000000000000000000000000000000000000000000000000000000000PES00010000001000000000000000000000000
201808090060000400000000000000001827000000000000000018278000000000030709027170Hospital de Alta Complejidad  000000022680000000000000000000000000000000000000000000000000000000000000000000000000000000000000000000000000000000000000PES00010000001000000000000000000000000
201808090060000400000000000000001828000000000000000018288000000000030502251291Federacion de Circulos Catolic000000002268750000000000000000000000000000000000000000000000000000000000000000000000000000000000000000000000000000000000PES00010000001000000000000000000000000
201808090060000400000000000000001829000000000000000018298000000000030615915544Hospital de Pediatria S.A.M.I.000000218864800000000000000000000000000000000000000000000000000000000000000000000000000000000000000000000000000000000000PES00010000001000000000000000000000000
201808090060000400000000000000001830000000000000000018308000000000030615915544Hospital de Pediatria S.A.M.I.000000038623200000000000000000000000000000000000000000000000000000000000000000000000000000000000000000000000000000000000PES00010000001000000000000000000000000
201808090010000400000000000000003673000000000000000036738000000000030691222957FUNDACION REGINA MATER        000000004840000000000000000000000000000000000000000000000000000000000000000000000000000000000000000000000000000000000000PES00010000001000000000000000000000000
201808090080000400000000000000000102000000000000000001028000000000034999032089Gobierno de la Ciudad de Bs. A000000028459200000000000000000000000000000000000000000000000000000000000000000000000000000000000000000000000000000000000PES00010000001000000000000000000000000
201808090010000400000000000000003674000000000000000036748000000000030545843036Hospital Aleman Asociacion Civ000000019602000000000000000000000000000000000000000000000000000000000000000000000000000000000000000000000000000000000000PES00010000001000000000000000000000000
201808090010000400000000000000003675000000000000000036758000000000030714908533S.Q.M.T. S.R.L.               000000002268750000000000000000000000000000000000000000000000000000000000000000000000000000000000000000000000000000000000PES00010000001000000000000000000000000
201808090010000400000000000000003676000000000000000036768000000000030545843036Hospital Aleman Asociacion Civ000000001270500000000000000000000000000000000000000000000000000000000000000000000000000000000000000000000000000000000000PES00010000001000000000000000000000000
201808090010000400000000000000003677000000000000000036778000000000030594950913Asoc. Civil de Estudios Superi000000025410000000000000000000000000000000000000000000000000000000000000000000000000000000000000000000000000000000000000PES00010000001000000000000000000000000
201808090010000400000000000000003678000000000000000036788000000000030594950913Asoc. Civil de Estudios Superi000000026257000000000000000000000000000000000000000000000000000000000000000000000000000000000000000000000000000000000000PES00010000001000000000000000000000000
201808090010000400000000000000003679000000000000000036798000000000030594950913Asoc. Civil de Estudios Superi000000008470000000000000000000000000000000000000000000000000000000000000000000000000000000000000000000000000000000000000PES00010000001000000000000000000000000
201808090010000400000000000000003680000000000000000036808000000000030536333416FUNDALEU  Fundacion Para Comba000000068970000000000000000000000000000000000000000000000000000000000000000000000000000000000000000000000000000000000000PES00010000001000000000000000000000000
201808090010000400000000000000003681000000000000000036818000000000030536333416FUNDALEU  Fundacion Para Comba000000013915000000000000000000000000000000000000000000000000000000000000000000000000000000000000000000000000000000000000PES00010000001000000000000000000000000
201808100010000400000000000000003682000000000000000036828000000000030536333416FUNDALEU  Fundacion Para Comba000000051727500000000000000000000000000000000000000000000000000000000000000000000000000000000000000000000000000000000000PES00010000001000000000000000000000000
201808100010000400000000000000003683000000000000000036838000000000030536333416FUNDALEU  Fundacion Para Comba000000004174500000000000000000000000000000000000000000000000000000000000000000000000000000000000000000000000000000000000PES00010000001000000000000000000000000
201808130010000400000000000000003684000000000000000036848000000000030681994234Medicina Transfusional Y Hemat000000009670320000000000000000000000000000000000000000000000000000000000000000000000000000000000000000000000000000000000PES00010000001000000000000000000000000
201808130010000400000000000000003685000000000000000036858000000000030594950913Asoc. Civil de Estudios Superi000000005082000000000000000000000000000000000000000000000000000000000000000000000000000000000000000000000000000000000000PES00010000001000000000000000000000000
201808130010000400000000000000003686000000000000000036868000000000030594950913Asoc. Civil de Estudios Superi000000020328000000000000000000000000000000000000000000000000000000000000000000000000000000000000000000000000000000000000PES00010000001000000000000000000000000
201808130010000400000000000000003687000000000000000036878000000000030594950913Asoc. Civil de Estudios Superi000000001694000000000000000000000000000000000000000000000000000000000000000000000000000000000000000000000000000000000000PES00010000001000000000000000000000000
201808130010000400000000000000003688000000000000000036888000000000030645337979Alexander Fleming S.A.        000000032996700000000000000000000000000000000000000000000000000000000000000000000000000000000000000000000000000000000000PES00010000001000000000000000000000000
201808130010000400000000000000003689000000000000000036898000000000030714908533S.Q.M.T. S.R.L.               000000009256500000000000000000000000000000000000000000000000000000000000000000000000000000000000000000000000000000000000PES00010000001000000000000000000000000
201808130010000400000000000000003690000000000000000036908000000000030545848534Asociacion Civil Mater Dei    000000004235000000000000000000000000000000000000000000000000000000000000000000000000000000000000000000000000000000000000PES00010000001000000000000000000000000
201808130010000400000000000000003691000000000000000036918000000000030708579439CEMETEC S.R.L.                000000002041875000000000000000000000000000000000000000000000000000000000000000000000000000000000000000000000000000000000PES00010000001000000000000000000000000
201808130010000400000000000000003692000000000000000036928000000000030545867679SOC. ITALIANA DE BENEF. EN BS.000000215985000000000000000000000000000000000000000000000000000000000000000000000000000000000000000000000000000000000000PES00010000001000000000000000000000000
201808140010000400000000000000003693000000000000000036938000000000030545867679SOC. ITALIANA DE BENEF. EN BS.000000032670000000000000000000000000000000000000000000000000000000000000000000000000000000000000000000000000000000000000PES00010000001000000000000000000000000
201808140010000400000000000000003694000000000000000036948000000000033677533019Cetramor S.R.L                000000005082000000000000000000000000000000000000000000000000000000000000000000000000000000000000000000000000000000000000PES00010000001000000000000000000000000
201808140010000400000000000000003695000000000000000036958000000000030546057328Sanatorio Parque S.A.         000000002268750000000000000000000000000000000000000000000000000000000000000000000000000000000000000000000000000000000000PES00010000001000000000000000000000000
201808140010000400000000000000003696000000000000000036968000000000030691314398Servicios de Medicina Transfus000000011343750000000000000000000000000000000000000000000000000000000000000000000000000000000000000000000000000000000000PES00010000001000000000000000000000000
201808140010000400000000000000003697000000000000000036978000000000030637850144Open Trade S.A.               000000004356000000000000000000000000000000000000000000000000000000000000000000000000000000000000000000000000000000000000PES00010000001000000000000000000000000
201808140010000400000000000000003698000000000000000036988000000000033561330609Fundacion Para la Lucha Contra000000020328000000000000000000000000000000000000000000000000000000000000000000000000000000000000000000000000000000000000PES00010000001000000000000000000000000
201808150060000400000000000000001831000000000000000018318000000000030709717274Banco de Sangre Tejidos       000000002541000000000000000000000000000000000000000000000000000000000000000000000000000000000000000000000000000000000000PES00010000001000000000000000000000000
201808150010000400000000000000003699000000000000000036998000000000030714908533S.Q.M.T. S.R.L.               000000009438000000000000000000000000000000000000000000000000000000000000000000000000000000000000000000000000000000000000PES00010000001000000000000000000000000
201808150010000400000000000000003700000000000000000037008000000000030522428163Galeno Argentina S. A.        000000016940000000000000000000000000000000000000000000000000000000000000000000000000000000000000000000000000000000000000PES00010000001000000000000000000000000
201808150030000400000000000000000100000000000000000001008000000000030545867679SOC. ITALIANA DE BENEF. EN BS.000000046282500000000000000000000000000000000000000000000000000000000000000000000000000000000000000000000000000000000000PES00010000001000000000000000000000000
201808160010000400000000000000003701000000000000000037018000000000030708637579Biotecnologica S.R.L.         000000032670000000000000000000000000000000000000000000000000000000000000000000000000000000000000000000000000000000000000PES00010000001000000000000000000000000
201808160010000400000000000000003702000000000000000037028000000000030663434191Silver Cross America Inc. S.A.000000005263500000000000000000000000000000000000000000000000000000000000000000000000000000000000000000000000000000000000PES00010000001000000000000000000000000
201808170010000400000000000000003703000000000000000037038000000000030545867679SOC. ITALIANA DE BENEF. EN BS.000000215985000000000000000000000000000000000000000000000000000000000000000000000000000000000000000000000000000000000000PES00010000001000000000000000000000000
201808170010000400000000000000003704000000000000000037048000000000030545867679SOC. ITALIANA DE BENEF. EN BS.000000027225000000000000000000000000000000000000000000000000000000000000000000000000000000000000000000000000000000000000PES00010000001000000000000000000000000
201808170010000400000000000000003705000000000000000037058000000000030545933566Hospital Britanico de Buenos A000000016189800000000000000000000000000000000000000000000000000000000000000000000000000000000000000000000000000000000000PES00010000001000000000000000000000000
201808170060000400000000000000001832000000000000000018328000000000034999032089Gobierno de la Ciudad de Bs. A000000013416400000000000000000000000000000000000000000000000000000000000000000000000000000000000000000000000000000000000PES00010000001000000000000000000000000
201808170080000400000000000000000103000000000000000001038000000000034999032089Gobierno de la Ciudad de Bs. A000000013416400000000000000000000000000000000000000000000000000000000000000000000000000000000000000000000000000000000000PES00010000001000000000000000000000000
201808210010000400000000000000003706000000000000000037068000000000030708637579Biotecnologica S.R.L.         000000036300000000000000000000000000000000000000000000000000000000000000000000000000000000000000000000000000000000000000PES00010000001000000000000000000000000
201808210010000400000000000000003707000000000000000037078000000000030536333416FUNDALEU  Fundacion Para Comba000000005747500000000000000000000000000000000000000000000000000000000000000000000000000000000000000000000000000000000000PES00010000001000000000000000000000000
201808210010000400000000000000003708000000000000000037088000000000030545871420Sanatorio Allende S.A.        000000006534000000000000000000000000000000000000000000000000000000000000000000000000000000000000000000000000000000000000PES00010000001000000000000000000000000
201808210010000400000000000000003709000000000000000037098000000000030545871420Sanatorio Allende S.A.        000000003267000000000000000000000000000000000000000000000000000000000000000000000000000000000000000000000000000000000000PES00010000001000000000000000000000000
201808220010000400000000000000003710000000000000000037108000000000030546022524Hospital Privado Centro Medico000000009801000000000000000000000000000000000000000000000000000000000000000000000000000000000000000000000000000000000000PES00010000001000000000000000000000000
201808220010000400000000000000003711000000000000000037118000000000030546017784Sanatorio de Niños S.A.       000000004537500000000000000000000000000000000000000000000000000000000000000000000000000000000000000000000000000000000000PES00010000001000000000000000000000000
201808220010000400000000000000003712000000000000000037128000000000030545867679SOC. ITALIANA DE BENEF. EN BS.000000005445000000000000000000000000000000000000000000000000000000000000000000000000000000000000000000000000000000000000PES00010000001000000000000000000000000
201808220010000400000000000000003713000000000000000037138000000000030545867679SOC. ITALIANA DE BENEF. EN BS.000000008893500000000000000000000000000000000000000000000000000000000000000000000000000000000000000000000000000000000000PES00010000001000000000000000000000000
201808220010000400000000000000003714000000000000000037148000000000030594950913Asoc. Civil de Estudios Superi000000005082000000000000000000000000000000000000000000000000000000000000000000000000000000000000000000000000000000000000PES00010000001000000000000000000000000
201808220010000400000000000000003715000000000000000037158000000000030594950913Asoc. Civil de Estudios Superi000000001270500000000000000000000000000000000000000000000000000000000000000000000000000000000000000000000000000000000000PES00010000001000000000000000000000000
201808220010000400000000000000003716000000000000000037168000000000030594950913Asoc. Civil de Estudios Superi000000016940000000000000000000000000000000000000000000000000000000000000000000000000000000000000000000000000000000000000PES00010000001000000000000000000000000
201808230010000400000000000000003717000000000000000037178000000000030594950913Asoc. Civil de Estudios Superi000000003388000000000000000000000000000000000000000000000000000000000000000000000000000000000000000000000000000000000000PES00010000001000000000000000000000000
201808240010000400000000000000003718000000000000000037188000000000030691314398Servicios de Medicina Transfus000000005082000000000000000000000000000000000000000000000000000000000000000000000000000000000000000000000000000000000000PES00010000001000000000000000000000000
201808240010000400000000000000003719000000000000000037198000000000030708637579Biotecnologica S.R.L.         000000018150000000000000000000000000000000000000000000000000000000000000000000000000000000000000000000000000000000000000PES00010000001000000000000000000000000
201808240060000400000000000000001833000000000000000018338000000000030615915544Hospital de Pediatria S.A.M.I.000000011586960000000000000000000000000000000000000000000000000000000000000000000000000000000000000000000000000000000000PES00010000001000000000000000000000000
201808270060000400000000000000001834000000000000000018348000000000034999032089Gobierno de la Ciudad de Bs. A000000003781250000000000000000000000000000000000000000000000000000000000000000000000000000000000000000000000000000000000PES00010000001000000000000000000000000
201808270080000400000000000000000104000000000000000001048000000000030615915544Hospital de Pediatria S.A.M.I.000000011586960000000000000000000000000000000000000000000000000000000000000000000000000000000000000000000000000000000000PES00010000001000000000000000000000000
201808270030000400000000000000000101000000000000000001018000000000030536333416FUNDALEU  Fundacion Para Comba000000005747500000000000000000000000000000000000000000000000000000000000000000000000000000000000000000000000000000000000PES00010000001000000000000000000000000
201808280010000400000000000000003720000000000000000037208000000000030708637579Biotecnologica S.R.L.         000000035392500000000000000000000000000000000000000000000000000000000000000000000000000000000000000000000000000000000000PES00010000001000000000000000000000000
201808280010000400000000000000003721000000000000000037218000000000030545867679SOC. ITALIANA DE BENEF. EN BS.000000005445000000000000000000000000000000000000000000000000000000000000000000000000000000000000000000000000000000000000PES00010000001000000000000000000000000
201808280010000400000000000000003722000000000000000037228000000000030546017784Sanatorio de Niños S.A.       000000004537500000000000000000000000000000000000000000000000000000000000000000000000000000000000000000000000000000000000PES00010000001000000000000000000000000
201808280010000400000000000000003723000000000000000037238000000000030715681710Haplotipos S.A.               000000009438000000000000000000000000000000000000000000000000000000000000000000000000000000000000000000000000000000000000PES00010000001000000000000000000000000
201808280010000400000000000000003724000000000000000037248000000000030708637579Biotecnologica S.R.L.         000000005445000000000000000000000000000000000000000000000000000000000000000000000000000000000000000000000000000000000000PES00010000001000000000000000000000000
201808300060000400000000000000001835000000000000000018358000000000030502251291Federacion de Circulos Catolic000000002268750000000000000000000000000000000000000000000000000000000000000000000000000000000000000000000000000000000000PES00010000001000000000000000000000000
201808300010000400000000000000003725000000000000000037258000000000030663434191Silver Cross America Inc. S.A.000000001422960000000000000000000000000000000000000000000000000000000000000000000000000000000000000000000000000000000000PES00010000001000000000000000000000000
201808300010000400000000000000003726000000000000000037268000000000030691314398Servicios de Medicina Transfus000000005691840000000000000000000000000000000000000000000000000000000000000000000000000000000000000000000000000000000000PES00010000001000000000000000000000000
201808300010000400000000000000003727000000000000000037278000000000030691222957FUNDACION REGINA MATER        000000001210000000000000000000000000000000000000000000000000000000000000000000000000000000000000000000000000000000000000PES00010000001000000000000000000000000
201808300060000400000000000000001836000000000000000018368000000000030626983398Mrio. de Salud de la Provincia000000006708240000000000000000000000000000000000000000000000000000000000000000000000000000000000000000000000000000000000PES00010000001000000000000000000000000
201808300010000400000000000000003728000000000000000037288000000000030637850144Open Trade S.A.               000000042471000000000000000000000000000000000000000000000000000000000000000000000000000000000000000000000000000000000000PES00010000001000000000000000000000000
201808300010000400000000000000003729000000000000000037298000000000030536333416FUNDALEU  Fundacion Para Comba000000096558000000000000000000000000000000000000000000000000000000000000000000000000000000000000000000000000000000000000PES00010000001000000000000000000000000
201808300010000400000000000000003730000000000000000037308000000000030681994234Medicina Transfusional Y Hemat000000012034176000000000000000000000000000000000000000000000000000000000000000000000000000000000000000000000000000000000PES00010000001000000000000000000000000
201808300010000400000000000000003731000000000000000037318000000000030546022524Hospital Privado Centro Medico000000005082000000000000000000000000000000000000000000000000000000000000000000000000000000000000000000000000000000000000PES00010000001000000000000000000000000
201808310030000400000000000000000102000000000000000001028000000000030691222957FUNDACION REGINA MATER        000000001210000000000000000000000000000000000000000000000000000000000000000000000000000000000000000000000000000000000000PES00010000001000000000000000000000000
