201808010030000500000000000000000102                8000000000030709869090Klinical SA                   000000003613611000000000000000000000000000000000000000000000000000000000000000000000000000000000000000000000000000000000PES00010000001000000000062715600000000000000000000000000                              000000000000000
201808100030000500000000000000000105                8000000000030709869090Klinical SA                   000000001195718000000000000000000000000000000000000000000000000000000000000000000000000000000000000000000000000000000000PES00010000001000000000020752100000000000000000000000000                              000000000000000
201809060030003500000000000000061566                8000000000033692148229Staples Argentina SA          000000000032801000000000000000000000000000000000000000000000000000000000000000000000002034000000000000000000000000000000PES00010000001000000000000534000000000000000000000000000                              000000000000000
201809110030000500000000000000000004                8000000000033707705359Alfaro Abogados               000000001222100000000000000000000000000000000000000000000000000000000000000000000000000000000000000000000000000000000000PES00010000001000000000021210000000000000000000000000000                              000000000000000
201809010030000500000000000000000109                8000000000030709869090Klinical SA                   000000003613611000000000000000000000000000000000000000000000000000000000000000000000000000000000000000000000000000000000PES00010000001000000000062715600000000000000000000000000                              000000000000000
201809140990000000000000000000000146                8000000000055000000018TerumoBCT Inc FTZ Branch      -00000028316327-00000028316327000000000000000000000000000000000000000000000000000000000000000000000000000000000000000000PES00010000001X00000000000000000000000000000000000000000                              000000000000000
201809010010000300000000000000000202                8000000000030710804091Emeh S.A.                     000000041859950000000000000000000000000000000000000000000000000000000000000000000000000000000000000000000000000000000000PES00010000001000000000726495000000000000000000000000000                              000000000000000
201808140010004100000000000000218012                8000000000030581466796Universal Assistance S.A.     000000005037077000000000000000000000004470233000000000000000000000000000000000000000370545000000000000000000000000000000PES00010000001000000000003406900000000000000000000000000                              000000000000000
201808140010004100000000000000218030                8000000000030581466796Universal Assistance S.A.     000000002705201000000000000000000000002419253000000000000000000000000000000000000000198782000000000000000000000000000000PES00010000001000000000001512800000000000000000000000000                              000000000000000
201808010010000500000000000000001030                8000000000030709869090Klinical SA                   000000017487556000000000000000000000000000000000000000000000000000000000000000000000693951000000000000000000000000000000PES00010000001000000000291459300000000000000000000000000                              000000000000000
201808010010000500000000000000001031                8000000000030709869090Klinical SA                   000000015939643000000000000000000000000000000000000000000000000000000000000000000000632526000000000000000000000000000000PES00010000001000000000265660700000000000000000000000000                              000000000000000
201808010010000500000000000000001029                8000000000030709869090Klinical SA                   000000034847210000000000000000000000000000000000000000000000000000000000000000000001382826000000000000000000000000000000PES00010000001000000000580786800000000000000000000000000                              000000000000000
201808300110000400000000000000000326                8000000000020286327126Gomez Roberto Emiliano        000000001860000000000000000000000000000000000000000000000000000000000000000000000000000000000000000000000000000000000000PES00010000000A00000000000000000000000000000000000000000                              000000000000000
201809030010000400000000000000026516                8000000000030692062309Huertas Del Plata SA          000000000117550000000000000000000000000000000000000000000000000000000000000000000000000000000000000000000000000000000000PES00010000002000000000001246600000000000000000000000000                              000000000000000
201808310010002600000000000000025670                8000000000030623295946Lavieri Sebastián y Lavieri Al000000001137090000000000000000000000000000000000000000000000000000000000000000000000000000000000000000000000000000000000PES00010000001000000000019734600000000000000000000000000                              000000000000000
201807130010000700000000000000006188                8000000000030541677220LOBOV Y CIA SACI              000000000711246000000000000000000000000000000000000000000000000000000000000000000000044109000000000000000000000000000000PES00010000001000000000011578400000000000000000000000000                              000000000000000
201808060010000500000000000000001135                8000000000020272269662Pablo Buffoni Almeida         000000000042087000000000000000000000000005000000000000000000000000000000000000000000000000000000000000000000000000000000PES00010000001000000000000643700000000000000000000000000                              000000000000000
201808070010000500000000000000001138                8000000000020272269662Pablo Buffoni Almeida         000000000033012000000000000000000000000005000000000000000000000000000000000000000000000000000000000000000000000000000000PES00010000001000000000000486200000000000000000000000000                              000000000000000
201808270010000500000000000000001159                8000000000020272269662Pablo Buffoni Almeida         000000000310971000000000000000000000000026500000000000000000000000000000000000000000000000000000000000000000000000000000PES00010000001000000000004937100000000000000000000000000                              000000000000000
201808270010000500000000000000001161                8000000000020272269662Pablo Buffoni Almeida         000000000633287000000000000000000000000269500000000000000000000000000000000000000000000000000000000000000000000000000000PES00010000001000000000006313700000000000000000000000000                              000000000000000
201807310010000100000000000000000031                8000000000030715751433Paintfix SRL                  000000001089000000000000000000000000000000000000000000000000000000000000000000000000000000000000000000000000000000000000PES00010000001000000000018900000000000000000000000000000                              000000000000000
201808240010000200000000000000001841                8000000000030699413514RABINOVICH Y ASOCIADOS        000000000744150000000000000000000000000000000000000000000000000000000000000000000000000000000000000000000000000000000000PES00010000001000000000012915000000000000000000000000000                              000000000000000
201805280010003500000000000000613566                8000000000033692148229Staples Argentina SA          000000001592958000000000000000000000000000000000000000000000000000000000000000000000098788000000000000000000000000000000PES00010000001000000000025931900000000000000000000000000                              000000000000000
201808310010003500000000000000634847                8000000000033692148229Staples Argentina SA          000000002381356000000000000000000000000000000000000000000000000000000000000000000000148497000000000000000000000000000000PES00010000002000000000037666600000000000000000000000000                              000000000000000
201808210110000100000000000000000452                8000000000030629357005AAHI - Asociacion Argentina de000000074350000000000000000000000000000000000000000000000000000000000000000000000000000000000000000000000000000000000000PES00010000000A00000000000000000000000000000000000000000                              000000000000000
201809030010000200000000000000000646                8000000000030581946615Acotecnica SA                 000000000314600000000000000000000000000000000000000000000000000000000000000000000000000000000000000000000000000000000000PES00010000001000000000005460000000000000000000000000000                              000000000000000
201809030010000200000000000000000645                8000000000030581946615Acotecnica SA                 000000000834900000000000000000000000000000000000000000000000000000000000000000000000000000000000000000000000000000000000PES00010000001000000000014490000000000000000000000000000                              000000000000000
201809030010000200000000000000000647                8000000000030581946615Acotecnica SA                 000000003901040000000000000000000000000000000000000000000000000000000000000000000000000000000000000000000000000000000000PES00010000001000000000067704000000000000000000000000000                              000000000000000
201809030010000200000000000000000648                8000000000030581946615Acotecnica SA                 000000002286900000000000000000000000000000000000000000000000000000000000000000000000000000000000000000000000000000000000PES00010000001000000000039690000000000000000000000000000                              000000000000000
201809010990000000000000000000082018                8000000000020163353750Administración Alejandro Perez000000002496100000000002496100000000000000000000000000000000000000000000000000000000000000000000000000000000000000000000PES00010000001A00000000000000000000000000000000000000000                              000000000000000
201808300010000400000000000000006610                8000000000030581069037Centro Médico Belgrano SA     000000000138545000000000000000000000000000000000000000000000000000000000000000000000000000000000000000000000000000000000PES00010000001000000000002404500000000000000000000000000                              000000000000000
201809030010000400000000000000000237                8000000000020290419388Jorge Daniel Ayala            000000005868863000000000000000000000000000000000000000000000000000000000000000000000000000000000000000000000000000000000PES00010000001000000000101856300000000000000000000000000                              000000000000000
201809050010002600000000000000025748                8000000000030623295946Lavieri Sebastián y Lavieri Al000000000462233000000000000000000000000000000000000000000000000000000000000000000000000000000000000000000000000000000000PES00010000001000000000008022200000000000000000000000000                              000000000000000
201808310110000100000000000000000396                8000000000027344022300MARTINA NOGUEIRA PEREZ        000000000966000000000000000000000000000000000000000000000000000000000000000000000000000000000000000000000000000000000000PES00010000000A00000000000000000000000000000000000000000                              000000000000000
201809060010000800000000000000056835                8000000000030676560994Organizacion de Remises Univer000000000937240000000000000000000000000937240000000000000000000000000000000000000000000000000000000000000000000000000000PES00010000001E00000000000000000000000000000000000000000                              000000000000000
201809030010000500000000000000001168                8000000000020272269662Pablo Buffoni Almeida         000000000288760000000000000000000000000129100000000000000000000000000000000000000000000000000000000000000000000000000000PES00010000001000000000002771000000000000000000000000000                              000000000000000
201809030010000500000000000000001172                8000000000020272269662Pablo Buffoni Almeida         000000000291710000000000000000000000000126000000000000000000000000000000000000000000000000000000000000000000000000000000PES00010000001000000000002876000000000000000000000000000                              000000000000000
201809020110000400000000000000000052                8000000000020129615568Osvaldo Mennella              000000000500000000000000000000000000000000000000000000000000000000000000000000000000000000000000000000000000000000000000PES00010000000A00000000000000000000000000000000000000000                              000000000000000
201809020110000400000000000000000054                8000000000020129615568Osvaldo Mennella              000000000500000000000000000000000000000000000000000000000000000000000000000000000000000000000000000000000000000000000000PES00010000000A00000000000000000000000000000000000000000                              000000000000000
201809030110000200000000000000000215                8000000000023141148664Alejandra Beatriz Petrazzini  000000002405000000000000000000000000000000000000000000000000000000000000000000000000000000000000000000000000000000000000PES00010000000A00000000000000000000000000000000000000000                              000000000000000
201809110010000200000000000000000214                8000000000023222853664CALABRESE MARIA JOSE          000000002964500000000000000000000000000000000000000000000000000000000000000000000000000000000000000000000000000000000000PES00010000001000000000051450000000000000000000000000000                              000000000000000
201809030010000500000000000000001170                8000000000020272269662Pablo Buffoni Almeida         000000000426119000000000000000000000000252000000000000000000000000000000000000000000000000000000000000000000000000000000PES00010000001000000000003021900000000000000000000000000                              000000000000000
201809060010000500000000000000001177                8000000000020272269662Pablo Buffoni Almeida         000000000150040000000000000000000000000000000000000000000000000000000000000000000000000000000000000000000000000000000000PES00010000001000000000002604000000000000000000000000000                              000000000000000
201808300010000200000000000000000980                8000000000020169370037Roberto H. Rottondi           000000003818760000000000000000000000000000000000000000000000000000000000000000000000000000000000000000000000000000000000PES00010000001000000000066276000000000000000000000000000                              000000000000000
201808300010000200000000000000000981                8000000000020169370037Roberto H. Rottondi           000000000036300000000000000000000000000000000000000000000000000000000000000000000000000000000000000000000000000000000000PES00010000001000000000000630000000000000000000000000000                              000000000000000
201808300010000200000000000000000982                8000000000020169370037Roberto H. Rottondi           000000000132314000000000000000000000000000000000000000000000000000000000000000000000000000000000000000000000000000000000PES00010000001000000000002296400000000000000000000000000                              000000000000000
201808300010000200000000000000000983                8000000000020169370037Roberto H. Rottondi           000000000709060000000000000000000000000000000000000000000000000000000000000000000000000000000000000000000000000000000000PES00010000001000000000012306000000000000000000000000000                              000000000000000
201808310010000200000000000000000987                8000000000020169370037Roberto H. Rottondi           000000004696434000000000000000000000000000000000000000000000000000000000000000000000000000000000000000000000000000000000PES00010000001000000000081508400000000000000000000000000                              000000000000000
201808030010000200000000000000000961                8000000000020169370037Roberto H. Rottondi           000000000601370000000000000000000000000000000000000000000000000000000000000000000000000000000000000000000000000000000000PES00010000001000000000010437000000000000000000000000000                              000000000000000
201809040010003500000000000000635517                8000000000033692148229Staples Argentina SA          000000000639928000000000000000000000000000000000000000000000000000000000000000000000039686000000000000000000000000000000PES00010000001000000000010417400000000000000000000000000                              000000000000000
201809100010000700000000000000060794                8000000000030616044210External Market S.R.L.        000000001018714000000000000000000000000000000000000000000000000000000000000000000000000000000000000000000000000000000000PES00010000001000000000017680200000000000000000000000000                              000000000000000
201711030010000200000000000001228530                8000000000030500055053Fianzas y Credito SA          000000000139072000000000000000000000000002332000000000000000000000000000000000000000008480000000000000000000000000000000PES00010000001000000000002226000000000000000000000000000                              000000000000000
201711170010000200000000000001230587                8000000000030500055053Fianzas y Credito SA          000000000409219000000000000000000000000006862000000000000000000000000000000000000000024952000000000000000000000000000000PES00010000001000000000006550000000000000000000000000000                              000000000000000
201801020010000200000000000001250411                8000000000030500055053Fianzas y Credito SA          000000000065600000000000000000000000000001100000000000000000000000000000000000000000004000000000000000000000000000000000PES00010000001000000000001050000000000000000000000000000                              000000000000000
201801020010000200000000000001253800                8000000000030500055053Fianzas y Credito SA          000000000009866000000000000000000000000000166000000000000000000000000000000000000000000602000000000000000000000000000000PES00010000001000000000000157900000000000000000000000000                              000000000000000
201802010010000200000000000001262962                8000000000030500055053Fianzas y Credito SA          000000000065600000000000000000000000000001100000000000000000000000000000000000000000004000000000000000000000000000000000PES00010000001000000000001050000000000000000000000000000                              000000000000000
201809110010000400000000000000001779                8000000000030618978121Ing. Eduardo Szpiezak SRL     000000000302500000000000000000000000000000000000000000000000000000000000000000000000000000000000000000000000000000000000PES00010000001000000000005250000000000000000000000000000                              000000000000000
201809100010000500000000000000001182                8000000000020272269662Pablo Buffoni Almeida         000000000143312000000000000000000000000079000000000000000000000000000000000000000000000000000000000000000000000000000000PES00010000001000000000001116200000000000000000000000000                              000000000000000
201809120010003500000000000000637381                8000000000033692148229Staples Argentina SA          000000000179150000000000000000000000000000000000000000000000000000000000000000000000011110000000000000000000000000000000PES00010000001000000000002916400000000000000000000000000                              000000000000000
201808080010010000000000000000071824                8000000000030612844832All Seasons SRL               000000004990107000000000000000000000004884460000000000000000000000000000000000000000105647000000000000000000000000000000PES00010000001E00000000000000000000000000000000000000000                              000000000000000
201808080010010000000000000000071825                8000000000030612844832All Seasons SRL               000000004988881000000000000000000000004884460000000000000000000000000000000000000000104421000000000000000000000000000000PES00010000001E00000000000000000000000000000000000000000                              000000000000000
201808290010001400000000000005855320                8000000000030655116202Empresa distribuidora y comerc000000000191316000000000000000000000000009155000000000000000000000000000000000000000000000000000000000000000000000000000PES00010000001000000000003872700000000000000000000000000                              000000000000000
201808290010001400000000000005856024                8000000000030655116202Empresa distribuidora y comerc000000000189093000000000000000000000000009049000000000000000000000000000000000000000000000000000000000000000000000000000PES00010000001000000000003827700000000000000000000000000                              000000000000000
201808310010001400000000000005856362                8000000000030655116202Empresa distribuidora y comerc000000000561835000000000000000000000000026886000000000000000000000000000000000000000000000000000000000000000000000000000PES00010000001000000000011372900000000000000000000000000                              000000000000000
201808290010001400000000000005859397                8000000000030655116202Empresa distribuidora y comerc000000000160169000000000000000000000000007665000000000000000000000000000000000000000000000000000000000000000000000000000PES00010000001000000000003242200000000000000000000000000                              000000000000000
201807300010500200000000000000289038                8000000000030517050225Aguas Danone de Argentina SA  000000000181649000000000000000000000000000000000000000000000000000000000000000000000011351000000000000000000000000000000PES00010000001000000000002955600000000000000000000000000                              000000000000000
201808300010500200000000000000314164                8000000000030517050225Aguas Danone de Argentina SA  000000000194445000000000000000000000000000000000000000000000000000000000000000000000012144000000000000000000000000000000PES00010000001000000000003163900000000000000000000000000                              000000000000000
201809200990000000000000000000092018                8000000000030634006903CADIEM                        000000000560000000000000560000000000000000000000000000000000000000000000000000000000000000000000000000000000000000000000PES00010000001A00000000000000000000000000000000000000000                              000000000000000
201809140010000400000000000000006704                8000000000030581069037Centro Médico Belgrano SA     000000000277090000000000000000000000000000000000000000000000000000000000000000000000000000000000000000000000000000000000PES00010000001000000000004809000000000000000000000000000                              000000000000000
201809140010000500000000000000019642                8000000000030708047003Fercorp SRL                   000000000430412000000000000000000000000000000000000000000000000000000000000000000000010413000000000000000000000000000000PES00010000001000000000007289200000000000000000000000000                              000000000000000
201807020010000200000000000001330427                8000000000030500055053Fianzas y Credito SA          000000000273787000000000000000000000000004789000000000000000000000000000000000000000006520000000000000000000000000000000PES00010000001000000000004555400000000000000000000000000                              000000000000000
201808010010000200000000000001341257                8000000000030500055053Fianzas y Credito SA          000000000131182000000000000000000000000002287000000000000000000000000000000000000000003118000000000000000000000000000000PES00010000001000000000002182900000000000000000000000000                              000000000000000
201809200010000500000000000000001192                8000000000020272269662Pablo Buffoni Almeida         000000000076062000000000000000000000000042000000000000000000000000000000000000000000000000000000000000000000000000000000PES00010000001000000000000591200000000000000000000000000                              000000000000000
201809170010000200000000000000001006                8000000000020169370037Roberto H. Rottondi           000000000239580000000000000000000000000000000000000000000000000000000000000000000000000000000000000000000000000000000000PES00010000001000000000004158000000000000000000000000000                              000000000000000
201809170010000200000000000000001638                8000000000030714395218Servicios P y T SA            000000008412235000000000000000000000000000000000000000000000000000000000000000000000000000000000000000000000000000000000PES00010000001000000000145997500000000000000000000000000                              000000000000000
201809180010000400000000000000001400                8000000000030709202401SHANDD Argentina S.A          000000012929468000000000000000000000000000000000000000000000000000000000000000000000000000000000000000000000000000000000PES00010000001000000000122859200000000000000000000000000                              000000000000000
201808020010003500000000000000628552                8000000000033692148229Staples Argentina SA          000000001251719000000000000000000000000000000000000000000000000000000000000000000000077626000000000000000000000000000000PES00010000001000000000020376800000000000000000000000000                              000000000000000
201809140010000200000000000000003181                8000000000030656417508Tecno Electronica de Proteccio000000001152216000000000000000000000000000000000000000000000000000000000000000000000000000000000000000000000000000000000PES00010000001000000000019997100000000000000000000000000                              000000000000000
201809200010000300000000000000000949                8000000000020174756296Torres Carlos Daniel          000000006763900000000000000000000000000000000000000000000000000000000000000000000000000000000000000000000000000000000000PES00010000001000000000117390000000000000000000000000000                              000000000000000
201809110010000500000000000000000013                8000000000033707705359Alfaro Abogados               000000009922000000000000000000000000000000000000000000000000000000000000000000000000000000000000000000000000000000000000PES00010000001000000000172200000000000000000000000000000                              000000000000000
201809140010000500000000000000019641                8000000000030708047003Fercorp SRL                   000000000430412000000000000000000000000000000000000000000000000000000000000000000000010413000000000000000000000000000000PES00010000001000000000007289200000000000000000000000000                              000000000000000
201809200010000500000000000000001201                8000000000020272269662Pablo Buffoni Almeida         000000000728817000000000000000000000000192000000000000000000000000000000000000000000000000000000000000000000000000000000PES00010000001000000000009316700000000000000000000000000                              000000000000000
201809200010000500000000000000001202                8000000000020272269662Pablo Buffoni Almeida         000000000402637000000000000000000000000178000000000000000000000000000000000000000000000000000000000000000000000000000000PES00010000001000000000003898700000000000000000000000000                              000000000000000
201809240010000500000000000000001210                8000000000020272269662Pablo Buffoni Almeida         000000000119946000000000000000000000000020000000000000000000000000000000000000000000000000000000000000000000000000000000PES00010000001000000000001734600000000000000000000000000                              000000000000000
201809210010000200000000000000010571                8000000000030613665079Prolijolimp S.A.              000000005612488000000000000000000000000000000000000000000000000000000000000000000000135786000000000000000000000000000000PES00010000001000000000095050200000000000000000000000000                              000000000000000
201809190010000200000000000000001855                8000000000030699413514RABINOVICH Y ASOCIADOS        000000000459800000000000000000000000000000000000000000000000000000000000000000000000000000000000000000000000000000000000PES00010000001000000000007980000000000000000000000000000                              000000000000000
201809010010000500000000000000001069                8000000000030709869090Klinical SA                   000000042902658000000000000000000000000000000000000000000000000000000000000000000001702486000000000000000000000000000000PES00010000001000000000715044300000000000000000000000000                              000000000000000
201809010010000500000000000000001070                8000000000030709869090Klinical SA                   000000017487556000000000000000000000000000000000000000000000000000000000000000000000693951000000000000000000000000000000PES00010000001000000000291459300000000000000000000000000                              000000000000000
201809010010000500000000000000001071                8000000000030709869090Klinical SA                   000000015939643000000000000000000000000000000000000000000000000000000000000000000000632526000000000000000000000000000000PES00010000001000000000265660700000000000000000000000000                              000000000000000
201809250060005600000000000000002989                8000000000030626538971RED HOTELERA IBEROAMERICANA SA000000011000000000000000000000000000000000000000000000000000000000000000000000000000682171000000000000000000000000000000PES00010000000A00000000000000000000000000000000000000000                              000000000000000
201809140010000200000000000000000130                8000000000030715612034Design Pharma SRL             000000012996484000000000000000000000000000000000000000000000000000000000000000000000000000000000000000000000000000000000PES00010000001000000000225558800000000000000000000000000                              000000000000000
201809190150001100000000000001390172                8000000000030663140996ANMAT                         000000000950167000000000000000000000000000000000000000000000000000000000000000000000000000000000000000000000000000000000PES00010000000A00000000000000000000000000000000000000000                              000000000000000
201809190150001100000000000001390255                8000000000030663140996ANMAT                         000000000325000000000000000000000000000000000000000000000000000000000000000000000000000000000000000000000000000000000000PES00010000000A00000000000000000000000000000000000000000                              000000000000000
201809190150001100000000000001390048                8000000000030663140996ANMAT                         000000000445000000000000000000000000000000000000000000000000000000000000000000000000000000000000000000000000000000000000PES00010000000A00000000000000000000000000000000000000000                              000000000000000
201809190150001100000000000001390154                8000000000030663140996ANMAT                         000000000325000000000000000000000000000000000000000000000000000000000000000000000000000000000000000000000000000000000000PES00010000000A00000000000000000000000000000000000000000                              000000000000000
201809270150001100000000000001393588                8000000000030663140996ANMAT                         000000001200000000000000000000000000000000000000000000000000000000000000000000000000000000000000000000000000000000000000PES00010000000A00000000000000000000000000000000000000000                              000000000000000
201809270150001100000000000001393569                8000000000030663140996ANMAT                         000000000363240000000000000000000000000000000000000000000000000000000000000000000000000000000000000000000000000000000000PES00010000000A00000000000000000000000000000000000000000                              000000000000000
201807230010000600000000000000020925                8000000000030657891823EAFF S.A.                     000000001072452000000000000000000000000054508000000000000000000000000000000000000000040395000000000000000000000000000000PES00010000001000000000016965700000000000000000000000000                              000000000000000
201806040010001900000000000000038054                8000000000030506726669Murchison SA                  000000004472354000000000000000000000000000000000000000000000000000000000000000000000277355000000000000000000000000000000PES00010000001000000000072805700000000000000000000000000                              000000000000000
201807180010000600000000000000020711                8000000000030657891823EAFF S.A.                     000000001158490000000000000000000000000044902000000000000000000000000000000000000000044190000000000000000000000000000000PES00010000001000000000018559800000000000000000000000000                              000000000000000
201807110010004000000000000000585901                8000000000030710964277Lakaut SA                     000000000077764000000000000000000000000000000000000000000000000000000000000000000000001881000000000000000000000000000000PES00010000001000000000001317000000000000000000000000000                              000000000000000
201807110010001900000000000000039663                8000000000030506726669Murchison SA                  000000003664091000000000000000000000000000000000000000000000000000000000000000000000227230000000000000000000000000000000PES00010000001000000000059648000000000000000000000000000                              000000000000000
201806180010001800000000000000020057                8000000000030584715932DHL Global Forwarding Argentin000000004061509000000000000000000000001259724000000000000000000000000000000000000000173725000000000000000000000000000000PES00010000001000000000045612200000000000000000000000000                              000000000000000
201807120010001800000000000000021513                8000000000030584715932DHL Global Forwarding Argentin000000005019661000000000000000000000002763868000000000000000000000000000000000000000139866000000000000000000000000000000PES00010000001000000000036723900000000000000000000000000                              000000000000000
201807170010044000000000000000817772                8000000000030696170580Aeropuertos Argentina 2000 SA 000000004000198000000000000000000000000000000000000000000000000000000000000000000000158738000000000000000000000000000000PES00010000001000000000066670000000000000000000000000000                              000000000000000
201807230010000600000000000000020926                8000000000030657891823EAFF S.A.                     000000002964951000000000000000000000000049161000000000000000000000000000000000000000115706000000000000000000000000000000PES00010000001000000000048596500000000000000000000000000                              000000000000000
201807180010004000000000000000596038                8000000000030710964277Lakaut SA                     000000000078626000000000000000000000000000000000000000000000000000000000000000000000001902000000000000000000000000000000PES00010000001000000000001331600000000000000000000000000                              000000000000000
201807240010001800000000000000022379                8000000000030584715932DHL Global Forwarding Argentin000000004847164000000000000000000000002111975000000000000000000000000000000000000000169596000000000000000000000000000000PES00010000001000000000044528000000000000000000000000000                              000000000000000
201807300010050000000000000000809810                8000000000030580111315DHL Express (Argentina) SA    000000000926378000000000000000000000000816103000000000000000000000000000000000000000068076000000000000000000000000000000PES00010000001000000000000732400000000000000000000000000                              000000000000000
201807120010000400000000000000055025                8000000000030707566856United Logistic Company SA    000000001236852000000000000000000000000011948000000000000000000000000000000000000000075963000000000000000000000000000000PES00010000001000000000019940300000000000000000000000000                              000000000000000
201808240010028000000000000001122334                8000000000030580111315DHL Express (Argentina) SA    000000000304667000000000000000-00000000534643000000000000000000000000000000000000000011969000000000000000000000000000000PES00010000001000000000014359200000000000000000000000000                              000000000000000
201807300010001800000000000000022873                8000000000030584715932DHL Global Forwarding Argentin000000003311487000000000000000000000001055665000000000000000000000000000000000000000139866000000000000000000000000000000PES00010000001000000000036723900000000000000000000000000                              000000000000000
201807220010028000000000000001115537                8000000000030580111315DHL Express (Argentina) SA    000000000243563000000000000000-00000001892643000000000000000000000000000000000000000003017000000000000000000000000000000PES00010000001000000000020270200000000000000000000000000                              000000000000000
201807130150000100000000000001091503                8000000000033546700939SENASA                        000000000008500000000000000000000000000000000000000000000000000000000000000000000000000000000000000000000000000000000000PES00010000000A00000000000000000000000000000000000000000                              000000000000000
201807130150000100000000000001091504                8000000000033546700939SENASA                        000000000009400000000000000000000000000000000000000000000000000000000000000000000000000000000000000000000000000000000000PES00010000000A00000000000000000000000000000000000000000                              000000000000000
20180522066000000000000000000000000018001IC04115235N8000000000033693450239AFIP                          000000010759134-00000022379365000000000000000000000000000000000000001532410000000000702354000000000000000000000000000000PES00010000001000000000536345800000000000000000000000000                              000000000000000
201806220990000000000000000000001647                8000000000055000000018TerumoBCT Inc FTZ Branch      000000073823368000000073823368000000000000000000000000000000000000000000000000000000000000000000000000000000000000000000PES00010000001X00000000000000000000000000000000000000000                              000000000000000
201808170990000000000000000000001864                8000000000055000000018TerumoBCT Inc FTZ Branch      000000092635080000000092635080000000000000000000000000000000000000000000000000000000000000000000000000000000000000000000PES00010000001X00000000000000000000000000000000000000000                              000000000000000
201808140990000000000000000000001843                8000000000055000000018TerumoBCT Inc FTZ Branch      000000020822625000000020822625000000000000000000000000000000000000000000000000000000000000000000000000000000000000000000PES00010000001X00000000000000000000000000000000000000000                              000000000000000
201808070990000000000000000000001816                8000000000055000000018TerumoBCT Inc FTZ Branch      000000022963414000000022963414000000000000000000000000000000000000000000000000000000000000000000000000000000000000000000PES00010000001X00000000000000000000000000000000000000000                              000000000000000
20180712066000000000000000000000000018073IC04113048W8000000000033693450239AFIP                          000000157347580-00000328304470000000000000000000000000000000000000022457910000000010293189000000000000000000000000000000PES00010000001000000007860264400000000000000000000000000                              000000000000000
201808160990000000000000000000001857                8000000000055000000018TerumoBCT Inc FTZ Branch      000000000485555000000000485555000000000000000000000000000000000000000000000000000000000000000000000000000000000000000000PES00010000001X00000000000000000000000000000000000000000                              000000000000000
201808070990000000000000000000001815                8000000000055000000018TerumoBCT Inc FTZ Branch      000000024118735000000024118735000000000000000000000000000000000000000000000000000000000000000000000000000000000000000000PES00010000001X00000000000000000000000000000000000000000                              000000000000000
201808220990000000000000000000001877                8000000000055000000018TerumoBCT Inc FTZ Branch      000000004718904000000004718904000000000000000000000000000000000000000000000000000000000000000000000000000000000000000000PES00010000001X00000000000000000000000000000000000000000                              000000000000000
20180801066000000000000000000000000018001IC04170194S8000000000033693450239AFIP                          000000028349834-00000059082372000000000000000000000000000000000000001853080000000004043112000000000000000000000000000000PES00010000001000000001415087800000000000000000000000000                              000000000000000
20180911066000000000000000000000000018001IC04199978Z8000000000033693450239AFIP                          000000046090774-00000095116481000000000000000000000000000000000000006529800000000002992830000000000000000000000000000000PES00010000001000000002285435600000000000000000000000000                              000000000000000
20180720066000000000000000000000000018073IC04118729K8000000000033693450239AFIP                          000000142333023-00000287986605000000000000000000000000000000000000019899178000000009120442000000000000000000000000000000PES00010000001000000006964710900000000000000000000000000                              000000000000000
20180806066000000000000000000000000018073IC04127678N8000000000033693450239AFIP                          000000029969469-00000062462937000000000000000000000000000000000000004274324000000001959067000000000000000000000000000000PES00010000001000000001496016000000000000000000000000000                              000000000000000
