201805050030000500000000000000000093                8000000000030709869090Klinical SA                   000000004143409000000000000000000000000000000000000000000000000000000000000000000000000000000000000000000000000000000000PES00010000001000000000071910400000000000000000000000000                              000000000000000
201806010030000500000000000000000096                8000000000030709869090Klinical SA                   000000003613611000000000000000000000000000000000000000000000000000000000000000000000000000000000000000000000000000000000PES00010000001000000000062715600000000000000000000000000                              000000000000000
201806150030000500000000000000000097                8000000000030709869090Klinical SA                   000000000056931000000000000000000000000000000000000000000000000000000000000000000000000000000000000000000000000000000000PES00010000001000000000000988100000000000000000000000000                              000000000000000
201805160010000200000000000000001512                8000000000030714395218Servicios P y T SA            000000007283584000000000000000000000000000000000000000000000000000000000000000000000000000000000000000000000000000000000PES00010000001000000000126409300000000000000000000000000                              000000000000000
201805310990000000000000000000052018                8000000000020163353750Administración Alejandro Perez000000002341700000000000000000000000002341700000000000000000000000000000000000000000000000000000000000000000000000000000PES00010000001A00000000000000000000000000000000000000000                              000000000000000
201805150010000400000000000000001275                8000000000030709202401SHANDD Argentina S.A          000000007925204000000000000000000000000000000000000000000000000000000000000000000000000000000000000000000000000000000000PES00010000001000000000075307400000000000000000000000000                              000000000000000
201802220010000200000000000000000160                8000000000023141148664Alejandra Beatriz Petrazzini  000000000349000000000000000000000000000349000000000000000000000000000000000000000000000000000000000000000000000000000000PES00010000001000000000000000000000000000000000000000000                              000000000000000
201805160010000300000000000000002462                8000000000033707705359Alfaro Abogados               000000002976600000000000000000000000000000000000000000000000000000000000000000000000000000000000000000000000000000000000PES00010000001000000000051660000000000000000000000000000                              000000000000000
201805170010000400000000000000006146                8000000000030581069037Centro Médico Belgrano SA     000000000116765000000000000000000000000000000000000000000000000000000000000000000000000000000000000000000000000000000000PES00010000001000000000002026500000000000000000000000000                              000000000000000
201806010010000300000000000000000190                8000000000030710804091Emeh S.A.                     000000028563260000000000000000000000000000000000000000000000000000000000000000000000000000000000000000000000000000000000PES00010000001000000000495726000000000000000000000000000                              000000000000000
201806010010000400000000000000000206                8000000000020290419388Jorge Daniel Ayala            000000004703270000000000000000000000000000000000000000000000000000000000000000000000000000000000000000000000000000000000PES00010000001000000000081627000000000000000000000000000                              000000000000000
201805290110000400000000000000000285                8000000000020286327126Gomez Roberto Emiliano        000000001860000000000000000000000000000000000000000000000000000000000000000000000000000000000000000000000000000000000000PES00010000000A00000000000000000000000000000000000000000                              000000000000000
201805280010000500000000000000001058                8000000000020272269662Pablo Buffoni Almeida         000000000071073000000000000000000000000009000000000000000000000000000000000000000000000000000000000000000000000000000000PES00010000001000000000001077300000000000000000000000000                              000000000000000
201805280010000200000000000000007289                8000000000033710567099MICHAEL PAGE INTERNATIONAL ARG000000016300440000000000000000000000000000000000000000000000000000000000000000000001010880000000000000000000000000000000PES00010000001000000000265356000000000000000000000000000                              000000000000000
201805280010000200000000000000010236                8000000000030613665079Prolijolimp S.R.L             000000004838356000000000000000000000000000000000000000000000000000000000000000000000117057000000000000000000000000000000PES00010000001000000000081939900000000000000000000000000                              000000000000000
201805240010000300000000000000035406                8000000000030702955285Quimca Fenix S.A              000000000152948000000000000000000000000000000000000000000000000000000000000000000000006069000000000000000000000000000000PES00010000001000000000002549100000000000000000000000000                              000000000000000
201804300010000800000000000000018467                8000000000030572884313IDM S.A.                      000000001672317000000000000000000000000000000000000000000000000000000000000000000000000000000000000000000000000000000000PES00010000001000000000029023700000000000000000000000000                              000000000000000
201805230010000100000000000000000073                8000000000030715519727ION-Target S.R.L              000000016155402000000000000000000000000000000000000000000000000000000000000000000000000000000000000000000000000000000000PES00010000001000000000280383000000000000000000000000000                              000000000000000
201805050010000500000000000000000932                8000000000030709869090Klinical SA                   000000037507111000000000000000000000000000000000000000000000000000000000000000000001488377000000000000000000000000000000PES00010000001000000000625118500000000000000000000000000                              000000000000000
201805050010000500000000000000000933                8000000000030709869090Klinical SA                   000000019565587000000000000000000000000000000000000000000000000000000000000000000000776412000000000000000000000000000000PES00010000001000000000326093100000000000000000000000000                              000000000000000
201805050010000500000000000000000934                8000000000030709869090Klinical SA                   000000017853103000000000000000000000000000000000000000000000000000000000000000000000708456000000000000000000000000000000PES00010000001000000000297551700000000000000000000000000                              000000000000000
201805310010006000000000000000193941                8000000000030623608677Edenred Argentina SA          000000001212229000000000000000000000000250614000000000000000000000000000000000000000000000000000000000000000000000000000PES00010000001000000000016689200000000000000000000000000                              000000000000000
201806010010001300000000000000032543                8000000000030685158341Chubb Argentina de Seguros SA 000000000095410000000000000000000000000027210000000000000000000000000000000000000000001650000000000000000000000000000000PES00010000001000000000001155000000000000000000000000000                              000000000000000
201804030010001400000000000000011648                8000000000030685158341Chubb Argentina de Seguros SA 000000000065450000000000000000000000000001227000000000000000000000000000000000000000002549000000000000000000000000000000PES00010000001000000000001070400000000000000000000000000                              000000000000000
201806010010001900000000000000013180                8000000000030685158341Chubb Argentina de Seguros SA 000000000018324000000000000000000000000000320000000000000000000000000000000000000000000436000000000000000000000000000000PES00010000001000000000000304900000000000000000000000000                              000000000000000
201805310010006000000000000000355304                8000000000030623608677Edenred Argentina SA          000000000031219000000000000000000000000000000000000000000000000000000000000000000000001239000000000000000000000000000000PES00010000001000000000000520300000000000000000000000000                              000000000000000
201707110990000000000000000004642651                8000000000030500000127Seguros Sura SA               000000003706482000000000000000000000000091051000000000085359000000000000000000000000087237000000000000000000000000000000PES00010000001A00000000059751700000000000000000000000000                              000000000000000
201805060010000500000000000000001073                8000000000020272269662Pablo Buffoni Almeida         000000000709200000000000000000000000000080000000000000000000000000000000000000000000000000000000000000000000000000000000PES00010000001000000000010920000000000000000000000000000                              000000000000000
201805060010000500000000000000001074                8000000000020272269662Pablo Buffoni Almeida         000000000819404000000000000000000000000059100000000000000000000000000000000000000000000000000000000000000000000000000000PES00010000001000000000013195400000000000000000000000000                              000000000000000
201803120010000500000000000000000971                8000000000020272269662Pablo Buffoni Almeida         000000000290019000000000000000000000000031200000000000000000000000000000000000000000000000000000000000000000000000000000PES00010000001000000000004491900000000000000000000000000                              000000000000000
201804110010000500000000000000001007                8000000000020272269662Pablo Buffoni Almeida         000000000035537000000000000000000000000004500000000000000000000000000000000000000000000000000000000000000000000000000000PES00010000001000000000000538700000000000000000000000000                              000000000000000
201804270010000500000000000000001021                8000000000020272269662Pablo Buffoni Almeida         000000000038562000000000000000000000000004500000000000000000000000000000000000000000000000000000000000000000000000000000PES00010000001000000000000591200000000000000000000000000                              000000000000000
201806080010000500000000000000001077                8000000000020272269662Pablo Buffoni Almeida         000000002011625000000000000000000000000000000000000000000000000000000000000000000000000000000000000000000000000000000000PES00010000001000000000034912500000000000000000000000000                              000000000000000
201806140010000500000000000000001084                8000000000020272269662Pablo Buffoni Almeida         000000000594833000000000000000000000000215800000000000000000000000000000000000000000000000000000000000000000000000000000PES00010000001000000000006578300000000000000000000000000                              000000000000000
201805300010000300000000000000029331                8000000000030696703058BIOARTIS SRL                  000000000319827000000000000000000000000000000000000000000000000000000000000000000000000000000000000000000000000000000000PES00010000001000000000005550700000000000000000000000000                              000000000000000
201806140010000300000000000000002480                8000000000033707705359Alfaro Abogados               000000004114000000000000000000000000000000000000000000000000000000000000000000000000000000000000000000000000000000000000PES00010000001000000000071400000000000000000000000000000                              000000000000000
201806010010000200000000000000010680                8000000000030624460444Carpe Scheider y Cia SA       000000003223584000000000000000000000003070080000000000000000000000000000000000000000153504000000000000000000000000000000PES00010000001000000000000000000000000000000000000000000                              000000000000000
201805160010000700000000000000056360                8000000000030616044210External Market S.R.L.        000000000741125000000000000000000000000000000000000000000000000000000000000000000000000000000000000000000000000000000000PES00010000001000000000012862500000000000000000000000000                              000000000000000
201805100010000300000000000000002232                8000000000020230368636GIORNO MARCELO ALEJANDRO      000000000299999000000000000000000000000000000000000000000000000000000000000000000000000000000000000000000000000000000000PES00010000001000000000005206600000000000000000000000000                              000000000000000
201806080010000300000000000000002471                8000000000020230368636GIORNO MARCELO ALEJANDRO      000000000135000000000000000000000000000000000000000000000000000000000000000000000000000000000000000000000000000000000000PES00010000001000000000002343000000000000000000000000000                              000000000000000
201805280010000400000000000000026146                8000000000030692062309Huertas Del Plata SA          000000000136250000000000000000000000000000000000000000000000000000000000000000000000000000000000000000000000000000000000PES00010000002000000000001412500000000000000000000000000                              000000000000000
201806110010000400000000000000026207                8000000000030692062309Huertas Del Plata SA          000000000128600000000000000000000000000000000000000000000000000000000000000000000000000000000000000000000000000000000000PES00010000002000000000001347700000000000000000000000000                              000000000000000
201806080010100000000000000000052480                8000000000030614587144KPMG                          000000024510000000000000000000000000000000000000000000000000000000000000000000000001520000000000000000000000000000000000PES00010000001000000000399000000000000000000000000000000                              000000000000000
201806110010100000000000000000052595                8000000000030614587144KPMG                          000000024510000000000000000000000000000000000000000000000000000000000000000000000001520000000000000000000000000000000000PES00010000001000000000399000000000000000000000000000000                              000000000000000
201805100010000400000000000000001615                8000000000030618978121Ing. Eduardo Szpiezak SRL     000000000762300000000000000000000000000000000000000000000000000000000000000000000000000000000000000000000000000000000000PES00010000001000000000013230000000000000000000000000000                              000000000000000
201805020010002200000000000000072610                8000000000030682504052Iron Mountain Argentina SA    000000000788501000000000000000000000000000000000000000000000000000000000000000000000048899000000000000000000000000000000PES00010000001000000000012836100000000000000000000000000                              000000000000000
201805090010002200000000000000073029                8000000000030682504052Iron Mountain Argentina SA    000000000204320000000000000000000000000000000000000000000000000000000000000000000000012671000000000000000000000000000000PES00010000001000000000003326100000000000000000000000000                              000000000000000
201805190010002200000000000000073030                8000000000030682504052Iron Mountain Argentina SA    000000000243749000000000000000000000000000000000000000000000000000000000000000000000015117000000000000000000000000000000PES00010000001000000000003968000000000000000000000000000                              000000000000000
201805090010002200000000000000073031                8000000000030682504052Iron Mountain Argentina SA    000000000204320000000000000000000000000000000000000000000000000000000000000000000000012671000000000000000000000000000000PES00010000001000000000003326100000000000000000000000000                              000000000000000
201805090010002200000000000000073032                8000000000030682504052Iron Mountain Argentina SA    000000000204320000000000000000000000000000000000000000000000000000000000000000000000012671000000000000000000000000000000PES00010000001000000000003326100000000000000000000000000                              000000000000000
201806010010002200000000000000074504                8000000000030682504052Iron Mountain Argentina SA    000000000788501000000000000000000000000000000000000000000000000000000000000000000000048899000000000000000000000000000000PES00010000001000000000012836100000000000000000000000000                              000000000000000
201805290010002600000000000000023768                8000000000030623295946Lavieri Sebastián y Lavieri Al000000000415692000000000000000000000000000000000000000000000000000000000000000000000000000000000000000000000000000000000PES00010000001000000000007214500000000000000000000000000                              000000000000000
201806010010000100000000000000000379                8000000000027344022300MARTINA NOGUEIRA PEREZ        000000000584000000000000000000000000000584000000000000000000000000000000000000000000000000000000000000000000000000000000PES00010000001000000000000000000000000000000000000000000                              000000000000000
201805310010000200000000000000000734                8000000000033710567099MICHAEL PAGE INTERNATIONAL ARG000000016300440000000000000000000000000000000000000000000000000000000000000000000001010880000000000000000000000000000000PES00010000001000000000265356000000000000000000000000000                              000000000000000
201805280010000200000000000000000900                8000000000020169370037Roberto H. Rottondi           000000000335775000000000000000000000000000000000000000000000000000000000000000000000000000000000000000000000000000000000PES00010000001000000000005827500000000000000000000000000                              000000000000000
201806080010000200000000000000000918                8000000000020169370037Roberto H. Rottondi           000000000601370000000000000000000000000000000000000000000000000000000000000000000000000000000000000000000000000000000000PES00010000001000000000010437000000000000000000000000000                              000000000000000
201806270010003500000000000000613479                8000000000033692148229Staples Argentina SA          000000000882547000000000000000000000000000000000000000000000000000000000000000000000054732000000000000000000000000000000PES00010000001000000000014367000000000000000000000000000                              000000000000000
201804020010000200000000000001290769                8000000000030500055053Fianzas y Credito SA          000000000198912000000000000000000000000003347000000000000000000000000000000000000000012137000000000000000000000000000000PES00010000001000000000003183500000000000000000000000000                              000000000000000
201805180010004100000000000000208095                8000000000030581466796Universal Assistance S.A.     000000008275549000000000000000000000007337227000000000007981000000000000000000000000608273000000000000000000000000000000PES00010000001000000000005588800000000000000000000000000                              000000000000000
201805290010001700000000000005438859                8000000000030655116202Empresa distribuidora y comerc000000000558461000000000000000000000000026725000000000000000000000000000000000000000000000000000000000000000000000000000PES00010000001000000000011304600000000000000000000000000                              000000000000000
201805290010001700000000000005441813                8000000000030655116202Empresa distribuidora y comerc000000000173147000000000000000000000000008286000000000000000000000000000000000000000000000000000000000000000000000000000PES00010000001000000000003504900000000000000000000000000                              000000000000000
201805290010001700000000000005442902                8000000000030655116202Empresa distribuidora y comerc000000000166472000000000000000000000000007966000000000000000000000000000000000000000000000000000000000000000000000000000PES00010000001000000000003369800000000000000000000000000                              000000000000000
201805290010001700000000000005443380                8000000000030655116202Empresa distribuidora y comerc000000000170922000000000000000000000000008179000000000000000000000000000000000000000000000000000000000000000000000000000PES00010000001000000000003459900000000000000000000000000                              000000000000000
201803260010000300000000000000000916                8000000000030714671363Soulmix SA                    000000000217700000000000000000000000000000000000000000000000000000000000000000000000000000000000000000000000000000000000PES00010000001000000000003778300000000000000000000000000                              000000000000000
201806180110000200000000000000000020                8000000000020109834158Armada Hugo Orlando           000000001005000000000000000000000000000000000000000000000000000000000000000000000000000000000000000000000000000000000000PES00010000000A00000000000000000000000000000000000000000                              000000000000000
201805230010000800000000000000051914                8000000000030676560994Organizacion de Remises Univer000000001007540000000000000000000000001007540000000000000000000000000000000000000000000000000000000000000000000000000000PES00010000001000000000000000000000000000000000000000000                              000000000000000
201806070010000800000000000000052790                8000000000030676560994Organizacion de Remises Univer000000002011480000000000000000000000002011480000000000000000000000000000000000000000000000000000000000000000000000000000PES00010000001000000000000000000000000000000000000000000                              000000000000000
201806150010000200000000000000000137                8000000000027209568727Sasson Margarita Veronica     000000001755043000000000000000000000000000000000000000000000000000000000000000000000000000000000000000000000000000000000PES00010000001000000000030459400000000000000000000000000                              000000000000000
201803180010050000000000000000771588                8000000000030580111315DHL Express (Argentina) SA    000000000064068000000000000000000000000000000000000000000000000000000000000000000000003973000000000000000000000000000000PES00010000001000000000001043000000000000000000000000000                              000000000000000
201806130010006000000000000000357695                8000000000030623608677Edenred Argentina SA          000000000022751000000000000000000000000000000000000000000000000000000000000000000000000903000000000000000000000000000000PES00010000001000000000000379200000000000000000000000000                              000000000000000
201712160010000200000000000001224755                8000000000030500055053Fianzas y Credito SA          000000000136379000000000000000000000000002287000000000000000000000000000000000000000008315000000000000000000000000000000PES00010000001000000000002182900000000000000000000000000                              000000000000000
201802010010000200000000000001262047                8000000000030500055053Fianzas y Credito SA          000000000136379000000000000000000000000002287000000000000000000000000000000000000000008315000000000000000000000000000000PES00010000001000000000002182900000000000000000000000000                              000000000000000
201805020010000200000000000001300694                8000000000030500055053Fianzas y Credito SA          000000000131182000000000000000000000000002287000000000000000000000000000000000000000003118000000000000000000000000000000PES00010000001000000000002182900000000000000000000000000                              000000000000000
201805280010000200000000000000002701                8000000000030712262342Grafica Eldorado SRL          000000000061710000000000000000000000000000000000000000000000000000000000000000000000000000000000000000000000000000000000PES00010000001000000000001071000000000000000000000000000                              000000000000000
201806220010000300000000000000059099                8000000000030710373414Grupos Integrados SA          000000001389553000000000000000000000000000000000000000000000000000000000000000000000086174000000000000000000000000000000PES00010000001000000000022620600000000000000000000000000                              000000000000000
201806150010002600000000000000024200                8000000000030623295946Lavieri Sebastián y Lavieri Al000000000822959000000000000000000000000000000000000000000000000000000000000000000000000000000000000000000000000000000000PES00010000001000000000014282800000000000000000000000000                              000000000000000
201806210010000200000000000000010319                8000000000030613665079Prolijolimp S.R.L             000000004838356000000000000000000000000000000000000000000000000000000000000000000000117057000000000000000000000000000000PES00010000001000000000081939900000000000000000000000000                              000000000000000
201806150010003500000000000000618263                8000000000033692148229Staples Argentina SA          000000001116922000000000000000000000000000000000000000000000000000000000000000000000069268000000000000000000000000000000PES00010000001000000000018182400000000000000000000000000                              000000000000000
201806010010000200000000000000003066                8000000000030656417508Tecno Electronica de Proteccio000000001152216000000000000000000000000000000000000000000000000000000000000000000000000000000000000000000000000000000000PES00010000001000000000019997100000000000000000000000000                              000000000000000
201806080010000300000000000000028730                8000000000030597876080Teletex S.A.                  000000012118491000000000000000000000000000000000000000000000000000000000000000000000524610000000000000000000000000000000PES00010000001000000000110168100000000000000000000000000                              000000000000000
201806190010000400000000000000001317                8000000000030709202401SHANDD Argentina S.A          000000003303808000000000000000000000000000000000000000000000000000000000000000000000000000000000000000000000000000000000PES00010000001000000000057338800000000000000000000000000                              000000000000000
201805310990000000000000000000052018                8000000000030999032083Banco de la Ciudad de Buenos A000000000056702000000000000000000000000000338000000000000000000000000000000000000000001363000000000000000000000000000000PES00010000001A00000000000954600000000000000000000000000                              000000000000000
201805310990000000000000000000052018                8000000000033999242109Banco Provincia de Buenos Aire000000000152521000000000000000000000000118280000000000000000000000000000000000000000034241000000000000000000000000000000PES00010000001A00000000000000000000000000000000000000000                              000000000000000
201805310990000000000000000000052018                8000000000030500014047Banco Provincia del Neuquen S.000000000108325000000000000000000000000016716000000000000000000000000000000000000000008189000000000000000000000000000000PES00010000001A00000000001447800000000000000000000000000                              000000000000000
201805020060001100000000000012360696                8000000000030657863676MetroGas SA                   000000000042185000000000000000000000000000000000000000000000000000000000000000000000000000000000000000000000000000000000PES00010000000A00000000000000000000000000000000000000000                              000000000000000
201805310990000000000000000000052018                8000000000030500005625Citibank N.A.                 000000019319227000000000000000000000015082872000000000000000000000000000000000000002678593000000000000000000000000000000PES00010000001A00000000027035500000000000000000000000000                              000000000000000
201806110010000300000000000000001470                8000000000030708884886Tampomax SRL                  000000001101100000000000000000000000000000000000000000000000000000000000000000000000000000000000000000000000000000000000PES00010000001000000000019110000000000000000000000000000                              000000000000000
201805310990000000000000000000052018                8000000000030671375900Banco de Formosa S.A.         000000000047190000000000000000000000000000000000000000000000000000000000000000000000000000000000000000000000000000000000PES00010000001A00000000000819000000000000000000000000000                              000000000000000
201805240060010000000000000000068546                8000000000030612844832All Seasons SRL               000000005477440000000000000000000000000000000000000000000000000000000000000000000000105940000000000000000000000000000000PES00010000000A00000000000000000000000000000000000000000                              000000000000000
201805240060010000000000000000068547                8000000000030612844832All Seasons SRL               000000005477440000000000000000000000000000000000000000000000000000000000000000000000104000000000000000000000000000000000PES00010000000A00000000000000000000000000000000000000000                              000000000000000
201805150060010200000000000000000134                8000000000030612844832All Seasons SRL               000000000829712000000000000000000000000000000000000000000000000000000000000000000000006351000000000000000000000000000000PES00010000001A00000000014289100000000000000000000000000                              000000000000000
201805150060010200000000000000000136                8000000000030612844832All Seasons SRL               000000000294667000000000000000000000000000000000000000000000000000000000000000000000007129000000000000000000000000000000PES00010000001A00000000004989900000000000000000000000000                              000000000000000
201805150060010200000000000000000135                8000000000030612844832All Seasons SRL               000000000280934000000000000000000000000000000000000000000000000000000000000000000000006797000000000000000000000000000000PES00010000001A00000000004757300000000000000000000000000                              000000000000000
201803190010050000000000000000771589                8000000000030580111315DHL Express (Argentina) SA    000000000031656000000000000000000000000000000000000000000000000000000000000000000000001963000000000000000000000000000000PES00010000001000000000000515300000000000000000000000000                              000000000000000
201804160010050000000000000000779677                8000000000030580111315DHL Express (Argentina) SA    000000000167087000000000000000000000000143722000000000000000000000000000000000000000012229000000000000000000000000000000PES00010000001000000000000193300000000000000000000000000                              000000000000000
201804230010050000000000000000780738                8000000000030580111315DHL Express (Argentina) SA    000000000310135000000000000000000000000276156000000000000000000000000000000000000000022843000000000000000000000000000000PES00010000001000000000000193300000000000000000000000000                              000000000000000
201805140010050000000000000000785534                8000000000030580111315DHL Express (Argentina) SA    000000000179516000000000000000000000000153481000000000000000000000000000000000000000013130000000000000000000000000000000PES00010000001000000000000224000000000000000000000000000                              000000000000000
201805310010050000000000000000792281                8000000000030580111315DHL Express (Argentina) SA    000000000328523000000000000000000000000304190000000000000000000000000000000000000000024333000000000000000000000000000000PES00010000001000000000000000000000000000000000000000000                              000000000000000
201806110010050000000000000000797510                8000000000030580111315DHL Express (Argentina) SA    000000000053954000000000000000000000000000000000000000000000000000000000000000000000003346000000000000000000000000000000PES00010000001000000000000878300000000000000000000000000                              000000000000000
201806010010000500000000000000000962                8000000000030709869090Klinical SA                   000000017487556000000000000000000000000000000000000000000000000000000000000000000000693951000000000000000000000000000000PES00010000001000000000291459300000000000000000000000000                              000000000000000
201806010010000500000000000000000961                8000000000030709869090Klinical SA                   000000037096386000000000000000000000000000000000000000000000000000000000000000000001472079000000000000000000000000000000PES00010000001000000000618273100000000000000000000000000                              000000000000000
201804060010000600000000000000018678                8000000000030657891823EAFF S.A.                     000000000935543000000000000000000000000000697000000000000000000000000000000000000000037097000000000000000000000000000000PES00010000001000000000015580800000000000000000000000000                              000000000000000
201806120010000200000000000000001535                8000000000030714395218Servicios P y T SA            000000007283584000000000000000000000000000000000000000000000000000000000000000000000000000000000000000000000000000000000PES00010000001000000000126409300000000000000000000000000                              000000000000000
201806190010000300000000000000000865                8000000000020174756296Torres Carlos Daniel          000000006485600000000000000000000000000000000000000000000000000000000000000000000000000000000000000000000000000000000000PES00010000001000000000112560000000000000000000000000000                              000000000000000
201806270990000000000000000005064854                8000000000030500000127Seguros Sura SA               000000017959285000000000000000000000000000000000000000424015000000000000000000000000433342000000000000000000000000000000PES00010000001A00000000296810300000000000000000000000000                              000000000000000
201806220010000400000000000000001321                8000000000030709202401SHANDD Argentina S.A          000000002462350000000000000000000000000000000000000000000000000000000000000000000000000000000000000000000000000000000000PES00010000001000000000042735000000000000000000000000000                              000000000000000
201806300990000000000000000000052018                8000000000030574816870American Express Argentina SA 000000000786900000000000000000000000000000000000000000000000000000000000000000000000006450000000000000000000000000000000PES00010000001A00000000013545000000000000000000000000000                              000000000000000
201801110010001000000000000000023036                8000000000030707294511SIQAT S.R.L.                  000000000411400000000000000000000000000000000000000000000000000000000000000000000000000000000000000000000000000000000000PES00010000001000000000007140000000000000000000000000000                              000000000000000
201803010010050000000000000000759075                8000000000030580111315DHL Express (Argentina) SA    000000004827549000000000000000000000002820366000000000000000000000000000000000000000336120000000000000000000000000000000PES00010000001000000000029001900000000000000000000000000                              000000000000000
201712310010050000000000000000749014                8000000000030580111315DHL Express (Argentina) SA    000000002443132000000000000000000000002208721000000000000000000000000000000000000000180282000000000000000000000000000000PES00010000001000000000000939400000000000000000000000000                              000000000000000
201806290010044000000000000000772959                8000000000030696170580Aeropuertos Argentina 2000 SA 000000006340219000000000000000000000000000000000000000000000000000000000000000000000251596000000000000000000000000000000PES00010000001000000000105670300000000000000000000000000                              000000000000000
201806290010044000000000000000780842                8000000000030696170580Aeropuertos Argentina 2000 SA 000000000404152000000000000000000000000000000000000000000000000000000000000000000000000000000000000000000000000000000000PES00010000001000000000007014200000000000000000000000000                              000000000000000
201806050010044000000000000000786050                8000000000030696170580Aeropuertos Argentina 2000 SA 000000005027828000000000000000000000000000000000000000000000000000000000000000000000199517000000000000000000000000000000PES00010000001000000000083797100000000000000000000000000                              000000000000000
201805300010000600000000000000019851                8000000000030657891823EAFF S.A.                     000000003114477000000000000000000000000077080000000000000000000000000000000000000000120532000000000000000000000000000000PES00010000001000000000050623300000000000000000000000000                              000000000000000
201805300010000600000000000000019852                8000000000030657891823EAFF S.A.                     000000000911416000000000000000000000000041613000000000000000000000000000000000000000034516000000000000000000000000000000PES00010000001000000000014496700000000000000000000000000                              000000000000000
201805300010000600000000000000019853                8000000000030657891823EAFF S.A.                     000000000969801000000000000000000000000011796000000000000000000000000000000000000000038016000000000000000000000000000000PES00010000001000000000015966700000000000000000000000000                              000000000000000
201806060010000600000000000000019936                8000000000030657891823EAFF S.A.                     000000001018766000000000000000000000000000820000000000000000000000000000000000000000040395000000000000000000000000000000PES00010000001000000000016965700000000000000000000000000                              000000000000000
201806130010000600000000000000020050                8000000000030657891823EAFF S.A.                     000000002746457000000000000000000000000000614000000000000000000000000000000000000000108962000000000000000000000000000000PES00010000001000000000045764100000000000000000000000000                              000000000000000
20180423066000000000000000000000000018001IC04092248V8000000000033693450239AFIP                          000000008546447-00000017774324000000000000000000000000000000000000001217154000000000557850000000000000000000000000000000PES00010000001X00000000426000900000000000000000000000000                              000000000000000
201805180010044000000000000000772965                8000000000030696170580Aeropuertos Argentina 2000 SA 000000000899942000000000000000000000000000000000000000000000000000000000000000000000035712000000000000000000000000000000PES00010000001000000000014999100000000000000000000000000                              000000000000000
201803200990000000000000000000001326                8000000000055000000018TerumoBCT Inc FTZ Branch      000000017427600000000000000000000000017427600000000000000000000000000000000000000000000000000000000000000000000000000000PES00010000001X00000000000000000000000000000000000000000                              000000000000000
201805110990000000000000000000001504                8000000000055000000018TerumoBCT Inc FTZ Branch      000000036665874000000000000000000000036665874000000000000000000000000000000000000000000000000000000000000000000000000000PES00010000001X00000000000000000000000000000000000000000                              000000000000000
201805110990000000000000000000001505                8000000000055000000018TerumoBCT Inc FTZ Branch      000000015147686000000000000000000000015147686000000000000000000000000000000000000000000000000000000000000000000000000000PES00010000001X00000000000000000000000000000000000000000                              000000000000000
201805110990000000000000000000001506                8000000000055000000018TerumoBCT Inc FTZ Branch      000000193800000000000000000000000000193800000000000000000000000000000000000000000000000000000000000000000000000000000000PES00010000001X00000000000000000000000000000000000000000                              000000000000000
201806060990000000000000000000001576                8000000000055000000018TerumoBCT Inc FTZ Branch      000000000309438000000000000000000000000309438000000000000000000000000000000000000000000000000000000000000000000000000000PES00010000001X00000000000000000000000000000000000000000                              000000000000000
201709080150001100000000000001201548                8000000000030663140996ANMAT                         000000000516000000000000000000000000000000000000000000000000000000000000000000000000000000000000000000000000000000000000PES00010000000A00000000000000000000000000000000000000000                              000000000000000
201709290150001100000000000001215468                8000000000030663140996ANMAT                         000000000810000000000000000000000000000000000000000000000000000000000000000000000000000000000000000000000000000000000000PES00010000000A00000000000000000000000000000000000000000                              000000000000000
201710170150001100000000000001224787                8000000000030663140996ANMAT                         000000000516000000000000000000000000000000000000000000000000000000000000000000000000000000000000000000000000000000000000PES00010000000A00000000000000000000000000000000000000000                              000000000000000
201711140150001100000000000001238358                8000000000030663140996ANMAT                         000000000810000000000000000000000000000000000000000000000000000000000000000000000000000000000000000000000000000000000000PES00010000000A00000000000000000000000000000000000000000                              000000000000000
201801120150001100000000000001267682                8000000000030663140996ANMAT                         000000000810000000000000000000000000000000000000000000000000000000000000000000000000000000000000000000000000000000000000PES00010000000A00000000000000000000000000000000000000000                              000000000000000
201801190150001100000000000001270935                8000000000030663140996ANMAT                         000000000186000000000000000000000000000000000000000000000000000000000000000000000000000000000000000000000000000000000000PES00010000000A00000000000000000000000000000000000000000                              000000000000000
201802060150001100000000000001279543                8000000000030663140996ANMAT                         000000000186000000000000000000000000000000000000000000000000000000000000000000000000000000000000000000000000000000000000PES00010000000A00000000000000000000000000000000000000000                              000000000000000
201802140150001100000000000001282139                8000000000030663140996ANMAT                         000000000264000000000000000000000000000000000000000000000000000000000000000000000000000000000000000000000000000000000000PES00010000000A00000000000000000000000000000000000000000                              000000000000000
201804140150001100000000000001282315                8000000000030663140996ANMAT                         000000000264000000000000000000000000000000000000000000000000000000000000000000000000000000000000000000000000000000000000PES00010000000A00000000000000000000000000000000000000000                              000000000000000
201802140150001100000000000001232388                8000000000030663140996ANMAT                         000000000810000000000000000000000000000000000000000000000000000000000000000000000000000000000000000000000000000000000000PES00010000000A00000000000000000000000000000000000000000                              000000000000000
201802230150001100000000000001286836                8000000000030663140996ANMAT                         000000000264000000000000000000000000000000000000000000000000000000000000000000000000000000000000000000000000000000000000PES00010000000A00000000000000000000000000000000000000000                              000000000000000
201803190150001100000000000001269373                8000000000030663140996ANMAT                         000000000320000000000000000000000000000000000000000000000000000000000000000000000000000000000000000000000000000000000000PES00010000000A00000000000000000000000000000000000000000                              000000000000000
201803090150001100000000000001296429                8000000000030663140996ANMAT                         000000000320000000000000000000000000000000000000000000000000000000000000000000000000000000000000000000000000000000000000PES00010000000A00000000000000000000000000000000000000000                              000000000000000
201803150150001100000000000001299713                8000000000030663140996ANMAT                         000000000975000000000000000000000000000000000000000000000000000000000000000000000000000000000000000000000000000000000000PES00010000000A00000000000000000000000000000000000000000                              000000000000000
201803150150001100000000000001299714                8000000000030663140996ANMAT                         000000000320000000000000000000000000000000000000000000000000000000000000000000000000000000000000000000000000000000000000PES00010000000A00000000000000000000000000000000000000000                              000000000000000
201804180150000100000000000000993001                8000000000033546700939SENASA                        000000000008500000000000000000000000000000000000000000000000000000000000000000000000000000000000000000000000000000000000PES00010000000A00000000000000000000000000000000000000000                              000000000000000
201804180150000100000000000000993002                8000000000033546700939SENASA                        000000000009400000000000000000000000000000000000000000000000000000000000000000000000000000000000000000000000000000000000PES00010000000A00000000000000000000000000000000000000000                              000000000000000
201805270150000100000000000001036347                8000000000033546700939SENASA                        000000000008500000000000000000000000000000000000000000000000000000000000000000000000000000000000000000000000000000000000PES00010000000A00000000000000000000000000000000000000000                              000000000000000
201805240150000100000000000001036348                8000000000033546700939SENASA                        000000000009400000000000000000000000000000000000000000000000000000000000000000000000000000000000000000000000000000000000PES00010000000A00000000000000000000000000000000000000000                              000000000000000
201805020150000100000000000001005380                8000000000033546700939SENASA                        000000000008500000000000000000000000000000000000000000000000000000000000000000000000000000000000000000000000000000000000PES00010000000A00000000000000000000000000000000000000000                              000000000000000
201805020150000100000000000001005381                8000000000033546700939SENASA                        000000000009400000000000000000000000000000000000000000000000000000000000000000000000000000000000000000000000000000000000PES00010000000A00000000000000000000000000000000000000000                              000000000000000
201803270150000100000000000000968839                8000000000033546700939SENASA                        000000000008500000000000000000000000000000000000000000000000000000000000000000000000000000000000000000000000000000000000PES00010000000A00000000000000000000000000000000000000000                              000000000000000
201803270150000100000000000000968840                8000000000033546700939SENASA                        000000000009400000000000000000000000000000000000000000000000000000000000000000000000000000000000000000000000000000000000PES00010000000A00000000000000000000000000000000000000000                              000000000000000
201805100150000900000000000000610214                8000000000033546700939SENASA                        000000000008500000000000000000000000000000000000000000000000000000000000000000000000000000000000000000000000000000000000PES00010000000A00000000000000000000000000000000000000000                              000000000000000
201805100150000900000000000000610216                8000000000033546700939SENASA                        000000000009400000000000000000000000000000000000000000000000000000000000000000000000000000000000000000000000000000000000PES00010000000A00000000000000000000000000000000000000000                              000000000000000
201805110150000900000000000000611103                8000000000033546700939SENASA                        000000000008500000000000000000000000000000000000000000000000000000000000000000000000000000000000000000000000000000000000PES00010000000A00000000000000000000000000000000000000000                              000000000000000
201805110150000900000000000000611106                8000000000033546700939SENASA                        000000000009400000000000000000000000000000000000000000000000000000000000000000000000000000000000000000000000000000000000PES00010000000A00000000000000000000000000000000000000000                              000000000000000
20180418066000000000000000000000000018073IC04063544E8000000000033693450239AFIP                          000000121591280-00000253702274000000000000000000000000000000000000017354618000000007954189000000000000000000000000000000PES00010000001X00000006074115400000000000000000000000000                              000000000000000
20180328066000000000000000000000000018073IC04051578X8000000000033693450239AFIP                          000000405258313-00000845723653000000000000000000000000000000000000057848883000000026514063000000000000000000000000000000PES00010000001X00000020247107000000000000000000000000000                              000000000000000
201806060010028000000000000001105362                8000000000030580111315DHL Express (Argentina) SA    000000000124206-00000000517373000000000000000000000000000000000000000000000000000000015570000000000000000000000000000000PES00010000001000000000010863600000000000000000000000000                              000000000000000
20180418066000000000000000000000000018073IC04063552D8000000000033693450239AFIP                          000000076517354-00000159631706000000000000000000000000000000000000010920185000000005005084000000000000000000000000000000PES00010000001X00000003822065800000000000000000000000000                              000000000000000
20180511066000000000000000000000000018073IC04078129J8000000000033693450239AFIP                          000000008614622-00000020242707000000000000000000000000000000000000002147813000000000984406000000000000000000000000000000PES00010000001X00000000446468900000000000000000000000000                              000000000000000
20180522066000000000000000000000000018073IC04083704E8000000000033693450239AFIP                          000000001428244-00000002587192000000000000000000000000000000000000000185698000000000085118000000000000000000000000000000PES00010000001X00000000064989300000000000000000000000000                              000000000000000
201803310010050000000000000000774001                8000000000030580111315DHL Express (Argentina) SA    000000000298063-00000000120258000000000000000000000000000000000000000000000000000000272809000000000000000000000000000000PES00010000001000000000002525400000000000000000000000000                              000000000000000
201804230010050000000000000000781448                8000000000030580111315DHL Express (Argentina) SA    000000000042505-00000000025563000000000000000000000000000000000000000000000000000000037137000000000000000000000000000000PES00010000001000000000000536800000000000000000000000000                              000000000000000
201806180010050000000000000000800572                8000000000030580111315DHL Express (Argentina) SA    000000000060322-00000000036000000000000000000000000000000000000000000000000000000000052762000000000000000000000000000000PES00010000001000000000000756000000000000000000000000000                              000000000000000
201805040010001800000000000000017595                8000000000030584715932DHL Global Forwarding Argentin000000003395729000000000000000000000001117269000000000000000000000000000000000000000141209000000000000000000000000000000PES00010000001000000000037093800000000000000000000000000                              000000000000000
201804100010001900000000000000035406                8000000000030506726669Murchison SA                  000000003352673000000000000000000000000000000000000000000000000000000000000000000000207918000000000000000000000000000000PES00010000001000000000054578400000000000000000000000000                              000000000000000
201804270010001900000000000000036390                8000000000030506726669Murchison SA                  000000003409831000000000000000000000000000000000000000000000000000000000000000000000211462000000000000000000000000000000PES00010000001000000000055508900000000000000000000000000                              000000000000000
20180323066000000000000000000000000018073IC04049144E8000000000033693450239AFIP                          000000006703657-00000007974959000000000000000000000000000000000000001271788000000000582905000000000000000000000000000000PES00010000001X00000000222564000000000000000000000000000                              000000000000000
20180529066000000000000000000000000018073IC04087512F8000000000033693450239AFIP                          000000154207277-00000321758704000000000000000000000000000000000000022009988000000010087907000000000000000000000000000000PES00010000001X00000007703495700000000000000000000000000                              000000000000000
20180510066000000000000000000000000018073IC04076803G8000000000033693450239AFIP                          000000168035484-00000350624821000000000000000000000000000000000000023984323000000010992799000000000000000000000000000000PES00010000001X00000008394501500000000000000000000000000                              000000000000000
201805040010001800000000000000017596                8000000000030584715932DHL Global Forwarding Argentin000000003395801000000000000000000000001117269000000000000000000000000000000000000000141281000000000000000000000000000000PES00010000001000000000037093800000000000000000000000000                              000000000000000
201805210010001800000000000000018397                8000000000030584715932DHL Global Forwarding Argentin000000004791033000000000000000000000002360283000000000000000000000000000000000000000150719000000000000000000000000000000PES00010000001000000000039571800000000000000000000000000                              000000000000000
20180409066000000000000000000000000018073IC04056497N8000000000033693450239AFIP                          000000006256809-00000011768451000000000000000000000000000000000000000833535000000000382048000000000000000000000000000000PES00010000001X00000000291738200000000000000000000000000                              000000000000000
201803190010001800000000000000014682                8000000000030584715932DHL Global Forwarding Argentin000000003591157000000000000000000000001583766000000000000000000000000000000000000000124469000000000000000000000000000000PES00010000001000000000032679700000000000000000000000000                              000000000000000
