201809030010000400000000000000003732000000000000000037328000000000030654855168Swiss Medical S.A.            000000007759125000000000000000000000000000000000000000000000000000000000000000000000000000000000000000000000000000000000PES00010000001000000000000000000000000
201809030060000400000000000000001837000000000000000018378000000000030654855168Swiss Medical S.A.            000000007759100000000000000000000000000000000000000000000000000000000000000000000000000000000000000000000000000000000000PES00010000001000000000000000000000000
201809040080000400000000000000000105000000000000000001058000000000030709717274Banco de Sangre Tejidos       000000004958217000000000000000000000000000000000000000000000000000000000000000000000000000000000000000000000000000000000PES00010000001000000000000000000000000
201809040060000400000000000000001839000000000000000018398000000000030709717274Banco de Sangre Tejidos       000000004958217000000000000000000000000000000000000000000000000000000000000000000000000000000000000000000000000000000000PES00010000001000000000000000000000000
201809050060000400000000000000001840000000000000000018408000000000030999003156Municipalidad de Rosario      000000042690000000000000000000000000000000000000000000000000000000000000000000000000000000000000000000000000000000000000PES00010000001000000000000000000000000
201809050010000400000000000000003733000000000000000037338000000000030545867679SOC. ITALIANA DE BENEF. EN BS.000000164148600000000000000000000000000000000000000000000000000000000000000000000000000000000000000000000000000000000000PES00010000001000000000000000000000000
201809060060000400000000000000001841000000000000000018418000000000030642520926FUNDACION HEMATOLOGICA SARMIEN000000015844950000000000000000000000000000000000000000000000000000000000000000000000000000000000000000000000000000000000PES00010000001000000000000000000000000
201809060060000400000000000000001842000000000000000018428000000000030642520926FUNDACION HEMATOLOGICA SARMIEN000000005880600000000000000000000000000000000000000000000000000000000000000000000000000000000000000000000000000000000000PES00010000001000000000000000000000000
201809060060000400000000000000001843000000000000000018438000000000030642520926FUNDACION HEMATOLOGICA SARMIEN000000004410450000000000000000000000000000000000000000000000000000000000000000000000000000000000000000000000000000000000PES00010000001000000000000000000000000
201809060060000400000000000000001844000000000000000018448000000000030642520926FUNDACION HEMATOLOGICA SARMIEN000000008820900000000000000000000000000000000000000000000000000000000000000000000000000000000000000000000000000000000000PES00010000001000000000000000000000000
201809060010000400000000000000003734000000000000000037348000000000030646918622Fundacion Sanidad Naval Argent000000011859210000000000000000000000000000000000000000000000000000000000000000000000000000000000000000000000000000000000PES00010000001000000000000000000000000
201809060010000400000000000000003735000000000000000037358000000000030545871420Sanatorio Allende S.A.        000000005445000000000000000000000000000000000000000000000000000000000000000000000000000000000000000000000000000000000000PES00010000001000000000000000000000000
201809060010000400000000000000003736000000000000000037368000000000033712120539Hemocentro Privado Salta S.R.L000000002772594000000000000000000000000000000000000000000000000000000000000000000000000000000000000000000000000000000000PES00010000001000000000000000000000000
201809060010000400000000000000003737000000000000000037378000000000030545843036Hospital Aleman Asociacion Civ000000014897520000000000000000000000000000000000000000000000000000000000000000000000000000000000000000000000000000000000PES00010000001000000000000000000000000
201809070010000400000000000000003738000000000000000037388000000000030536333416FUNDALEU  Fundacion Para Comba000000070349400000000000000000000000000000000000000000000000000000000000000000000000000000000000000000000000000000000000PES00010000001000000000000000000000000
201809070010000400000000000000003739000000000000000037398000000000030545867679SOC. ITALIANA DE BENEF. EN BS.000000139876000000000000000000000000000000000000000000000000000000000000000000000000000000000000000000000000000000000000PES00010000001000000000000000000000000
201809070010000400000000000000003740000000000000000037408000000000030691314398Servicios de Medicina Transfus000000001727880000000000000000000000000000000000000000000000000000000000000000000000000000000000000000000000000000000000PES00010000001000000000000000000000000
201809070010000400000000000000003741000000000000000037418000000000020132553239Brunetti Osvaldo Jose Alfredo 000000005263500000000000000000000000000000000000000000000000000000000000000000000000000000000000000000000000000000000000PES00010000001000000000000000000000000
201809070060000400000000000000001845000000000000000018458000000000030642520926FUNDACION HEMATOLOGICA SARMIEN000000002178000000000000000000000000000000000000000000000000000000000000000000000000000000000000000000000000000000000000PES00010000001000000000000000000000000
201809070060000400000000000000001846000000000000000018468000000000030642520926FUNDACION HEMATOLOGICA SARMIEN000000009801000000000000000000000000000000000000000000000000000000000000000000000000000000000000000000000000000000000000PES00010000001000000000000000000000000
201809070060000400000000000000001847000000000000000018478000000000030642520926FUNDACION HEMATOLOGICA SARMIEN000000013068000000000000000000000000000000000000000000000000000000000000000000000000000000000000000000000000000000000000PES00010000001000000000000000000000000
201809070010000400000000000000003742000000000000000037428000000000033561330609Fundacion Para la Lucha Contra000000011383680000000000000000000000000000000000000000000000000000000000000000000000000000000000000000000000000000000000PES00010000001000000000000000000000000
201809070010000400000000000000003743000000000000000037438000000000030645337979Alexander Fleming S.A.        000000007005900000000000000000000000000000000000000000000000000000000000000000000000000000000000000000000000000000000000PES00010000001000000000000000000000000
201809070010000400000000000000003744000000000000000037448000000000030645337979Alexander Fleming S.A.        000000021017700000000000000000000000000000000000000000000000000000000000000000000000000000000000000000000000000000000000PES00010000001000000000000000000000000
201809100010000400000000000000003745000000000000000037458000000000030691314398Servicios de Medicina Transfus000000006911520000000000000000000000000000000000000000000000000000000000000000000000000000000000000000000000000000000000PES00010000001000000000000000000000000
201809100010000400000000000000003746000000000000000037468000000000030663434191Silver Cross America Inc. S.A.000000014316720000000000000000000000000000000000000000000000000000000000000000000000000000000000000000000000000000000000PES00010000001000000000000000000000000
201809110080000400000000000000000106000000000000000001068000000000030626983398Mrio. de Salud de la Provincia000000006708240000000000000000000000000000000000000000000000000000000000000000000000000000000000000000000000000000000000PES00010000001000000000000000000000000
201809120030000400000000000000000103000000000000000001038000000000033712120539Hemocentro Privado Salta S.R.L000000002772594000000000000000000000000000000000000000000000000000000000000000000000000000000000000000000000000000000000PES00010000001000000000000000000000000
201809120010000400000000000000003747000000000000000037478000000000030546022524Hospital Privado Centro Medico000000013329360000000000000000000000000000000000000000000000000000000000000000000000000000000000000000000000000000000000PES00010000001000000000000000000000000
201809120010000400000000000000003748000000000000000037488000000000030545871420Sanatorio Allende S.A.        000000009873600000000000000000000000000000000000000000000000000000000000000000000000000000000000000000000000000000000000PES00010000001000000000000000000000000
201809120010000400000000000000003749000000000000000037498000000000030546057328Sanatorio Parque S.A.         000000004356000000000000000000000000000000000000000000000000000000000000000000000000000000000000000000000000000000000000PES00010000001000000000000000000000000
201809130060000400000000000000001848000000000000000018488000000000030642520926FUNDACION HEMATOLOGICA SARMIEN000000017772480000000000000000000000000000000000000000000000000000000000000000000000000000000000000000000000000000000000PES00010000001000000000000000000000000
201809130010000400000000000000003750000000000000000037508000000000030545933566Hospital Britanico de Buenos A000000054827520000000000000000000000000000000000000000000000000000000000000000000000000000000000000000000000000000000000PES00010000001000000000000000000000000
201809130010000400000000000000003751000000000000000037518000000000030545933566Hospital Britanico de Buenos A000000006504960000000000000000000000000000000000000000000000000000000000000000000000000000000000000000000000000000000000PES00010000001000000000000000000000000
201809140010000400000000000000003752000000000000000037528000000000030545867679SOC. ITALIANA DE BENEF. EN BS.000000293739600000000000000000000000000000000000000000000000000000000000000000000000000000000000000000000000000000000000PES00010000001000000000000000000000000
201809140010000400000000000000003753000000000000000037538000000000030714908533S.Q.M.T. S.R.L.               000000012835680000000000000000000000000000000000000000000000000000000000000000000000000000000000000000000000000000000000PES00010000001000000000000000000000000
201809140010000400000000000000003754000000000000000037548000000000030536333416FUNDALEU  Fundacion Para Comba000000093799200000000000000000000000000000000000000000000000000000000000000000000000000000000000000000000000000000000000PES00010000001000000000000000000000000
201809140010000400000000000000003755000000000000000037558000000000020235817900Martín Carlos Armatta         000000021999978000000000000000000000000000000000000000000000000000000000000000000000000000000000000000000000000000000000PES00010000001000000000000000000000000
201809140010000400000000000000003756000000000000000037568000000000030708637579Biotecnologica S.R.L.         000000011107800000000000000000000000000000000000000000000000000000000000000000000000000000000000000000000000000000000000PES00010000001000000000000000000000000
201809170020000400000000000000000001000000000000000000018000000000030545867679SOC. ITALIANA DE BENEF. EN BS.000000004628250000000000000000000000000000000000000000000000000000000000000000000000000000000000000000000000000000000000PES00010000001000000000000000000000000
201809170010000400000000000000003757000000000000000037578000000000030681994234Medicina Transfusional Y Hemat000000014612928000000000000000000000000000000000000000000000000000000000000000000000000000000000000000000000000000000000PES00010000001000000000000000000000000
201809170010000400000000000000003758000000000000000037588000000000030708637579Biotecnologica S.R.L.         000000018513000000000000000000000000000000000000000000000000000000000000000000000000000000000000000000000000000000000000PES00010000001000000000000000000000000
201809170010000400000000000000003759000000000000000037598000000000030594950913Asoc. Civil de Estudios Superi000000034557600000000000000000000000000000000000000000000000000000000000000000000000000000000000000000000000000000000000PES00010000001000000000000000000000000
201809170010000400000000000000003760000000000000000037608000000000030594950913Asoc. Civil de Estudios Superi000000006911520000000000000000000000000000000000000000000000000000000000000000000000000000000000000000000000000000000000PES00010000001000000000000000000000000
201809180060000400000000000000001849000000000000000018498000000000030545959948A.M.E.B.P.B.A.                000000005142500000000000000000000000000000000000000000000000000000000000000000000000000000000000000000000000000000000000PES00010000001000000000000000000000000
201809180060000400000000000000001850000000000000000018508000000000030660716757HOSPITAL J. B. ITURRASPE      000000000205700000000000000000000000000000000000000000000000000000000000000000000000000000000000000000000000000000000000PES00010000001000000000000000000000000
201809180010000400000000000000003761000000000000000037618000000000030536333416FUNDALEU  Fundacion Para Comba000000005677320000000000000000000000000000000000000000000000000000000000000000000000000000000000000000000000000000000000PES00010000001000000000000000000000000
201809190060000400000000000000001851000000000000000018518000000000030502251291Federacion de Circulos Catolic000000003085500000000000000000000000000000000000000000000000000000000000000000000000000000000000000000000000000000000000PES00010000001000000000000000000000000
201809190010000400000000000000003762000000000000000037628000000000020132553239Brunetti Osvaldo Jose Alfredo 000000005082000000000000000000000000000000000000000000000000000000000000000000000000000000000000000000000000000000000000PES00010000001000000000000000000000000
201809190010000400000000000000003763000000000000000037638000000000030714908533S.Q.M.T. S.R.L.               000000012835680000000000000000000000000000000000000000000000000000000000000000000000000000000000000000000000000000000000PES00010000001000000000000000000000000
201809190010000400000000000000003764000000000000000037648000000000030714908533S.Q.M.T. S.R.L.               000000006417840000000000000000000000000000000000000000000000000000000000000000000000000000000000000000000000000000000000PES00010000001000000000000000000000000
201809190010000400000000000000003765000000000000000037658000000000030714908533S.Q.M.T. S.R.L.               000000006417840000000000000000000000000000000000000000000000000000000000000000000000000000000000000000000000000000000000PES00010000001000000000000000000000000
201809190010000400000000000000003766000000000000000037668000000000030663434191Silver Cross America Inc. S.A.000000030855000000000000000000000000000000000000000000000000000000000000000000000000000000000000000000000000000000000000PES00010000001000000000000000000000000
201809190010000400000000000000003767000000000000000037678000000000030546022524Hospital Privado Centro Medico000000006911520000000000000000000000000000000000000000000000000000000000000000000000000000000000000000000000000000000000PES00010000001000000000000000000000000
201809190060000400000000000000001852000000000000000018528000000000030642520926FUNDACION HEMATOLOGICA SARMIEN000000023943480000000000000000000000000000000000000000000000000000000000000000000000000000000000000000000000000000000000PES00010000001000000000000000000000000
201809190010000400000000000000003768000000000000000037688000000000030546057328Sanatorio Parque S.A.         000000003085500000000000000000000000000000000000000000000000000000000000000000000000000000000000000000000000000000000000PES00010000001000000000000000000000000
201809190010000400000000000000003769000000000000000037698000000000030714908533S.Q.M.T. S.R.L.               000000009256500000000000000000000000000000000000000000000000000000000000000000000000000000000000000000000000000000000000PES00010000001000000000000000000000000
201809190010000400000000000000003770000000000000000037708000000000030546057328Sanatorio Parque S.A.         000000004936800000000000000000000000000000000000000000000000000000000000000000000000000000000000000000000000000000000000PES00010000001000000000000000000000000
201809190060000400000000000000001853000000000000000018538000000000030642520926FUNDACION HEMATOLOGICA SARMIEN000000015057240000000000000000000000000000000000000000000000000000000000000000000000000000000000000000000000000000000000PES00010000001000000000000000000000000
201809190010000400000000000000003771000000000000000037718000000000030545871420Sanatorio Allende S.A.        000000000822800000000000000000000000000000000000000000000000000000000000000000000000000000000000000000000000000000000000PES00010000001000000000000000000000000
201809190010000400000000000000003772000000000000000037728000000000033545854509Hospital Italiano De La Plata 000000004537500000000000000000000000000000000000000000000000000000000000000000000000000000000000000000000000000000000000PES00010000001000000000000000000000000
201809190010000400000000000000003773000000000000000037738000000000030545848534Asociacion Civil Mater Dei    000000007713750000000000000000000000000000000000000000000000000000000000000000000000000000000000000000000000000000000000PES00010000001000000000000000000000000
201809200010000400000000000000003774000000000000000037748000000000030681994234Medicina Transfusional Y Hemat000000007306464000000000000000000000000000000000000000000000000000000000000000000000000000000000000000000000000000000000PES00010000001000000000000000000000000
201809200010000400000000000000003775000000000000000037758000000000030681994234Medicina Transfusional Y Hemat000000007306464000000000000000000000000000000000000000000000000000000000000000000000000000000000000000000000000000000000PES00010000001000000000000000000000000
201809200060000400000000000000001855000000000000000018558000000000030642520926FUNDACION HEMATOLOGICA SARMIEN000000006664680000000000000000000000000000000000000000000000000000000000000000000000000000000000000000000000000000000000PES00010000001000000000000000000000000
201809200010000400000000000000003776000000000000000037768000000000030594950913Asoc. Civil de Estudios Superi000000001727880000000000000000000000000000000000000000000000000000000000000000000000000000000000000000000000000000000000PES00010000001000000000000000000000000
201809200010000400000000000000003777000000000000000037778000000000030594950913Asoc. Civil de Estudios Superi000000006911520000000000000000000000000000000000000000000000000000000000000000000000000000000000000000000000000000000000PES00010000001000000000000000000000000
201809200060000400000000000000001856000000000000000018568000000000030642520926FUNDACION HEMATOLOGICA SARMIEN000000006664680000000000000000000000000000000000000000000000000000000000000000000000000000000000000000000000000000000000PES00010000001000000000000000000000000
201809210060000400000000000000001857000000000000000018578000000000034999032089Gobierno de la Ciudad de Bs. A000000023478700000000000000000000000000000000000000000000000000000000000000000000000000000000000000000000000000000000000PES00010000001000000000000000000000000
201809210010000400000000000000003778000000000000000037788000000000030546022524Hospital Privado Centro Medico000000006911520000000000000000000000000000000000000000000000000000000000000000000000000000000000000000000000000000000000PES00010000001000000000000000000000000
201809210060000400000000000000001858000000000000000018588000000000030642520926FUNDACION HEMATOLOGICA SARMIEN000000017772480000000000000000000000000000000000000000000000000000000000000000000000000000000000000000000000000000000000PES00010000001000000000000000000000000
201809210010000400000000000000003779000000000000000037798000000000030711736154Asertiva SA                   000000102850000000000000000000000000000000000000000000000000000000000000000000000000000000000000000000000000000000000000PES00010000001000000000000000000000000
201809210010000400000000000000003780000000000000000037808000000000033561330609Fundacion Para la Lucha Contra000000027646080000000000000000000000000000000000000000000000000000000000000000000000000000000000000000000000000000000000PES00010000001000000000000000000000000
201809210010000400000000000000003781000000000000000037818000000000030637850144Open Trade S.A.               000000035051280000000000000000000000000000000000000000000000000000000000000000000000000000000000000000000000000000000000PES00010000001000000000000000000000000
201809210010000400000000000000003782000000000000000037828000000000030545843036Hospital Aleman Asociacion Civ000000006171000000000000000000000000000000000000000000000000000000000000000000000000000000000000000000000000000000000000PES00010000001000000000000000000000000
201809240010000400000000000000003783000000000000000037838000000000030594950913Asoc. Civil de Estudios Superi000000034557600000000000000000000000000000000000000000000000000000000000000000000000000000000000000000000000000000000000PES00010000001000000000000000000000000
201809240010000400000000000000003784000000000000000037848000000000030594950913Asoc. Civil de Estudios Superi000000020734560000000000000000000000000000000000000000000000000000000000000000000000000000000000000000000000000000000000PES00010000001000000000000000000000000
201809240010000400000000000000003785000000000000000037858000000000030594950913Asoc. Civil de Estudios Superi000000001151920000000000000000000000000000000000000000000000000000000000000000000000000000000000000000000000000000000000PES00010000001000000000000000000000000
201809240010000400000000000000003786000000000000000037868000000000030594950913Asoc. Civil de Estudios Superi000000005759600000000000000000000000000000000000000000000000000000000000000000000000000000000000000000000000000000000000PES00010000001000000000000000000000000
201809240010000400000000000000003787000000000000000037878000000000030594950913Asoc. Civil de Estudios Superi000000013823040000000000000000000000000000000000000000000000000000000000000000000000000000000000000000000000000000000000PES00010000001000000000000000000000000
201809240010000400000000000000003788000000000000000037888000000000030594950913Asoc. Civil de Estudios Superi000000011519200000000000000000000000000000000000000000000000000000000000000000000000000000000000000000000000000000000000PES00010000001000000000000000000000000
201809240010000400000000000000003789000000000000000037898000000000030691314398Servicios de Medicina Transfus000000006911520000000000000000000000000000000000000000000000000000000000000000000000000000000000000000000000000000000000PES00010000001000000000000000000000000
201809240060000400000000000000001859000000000000000018598000000000030615915544Hospital de Pediatria S.A.M.I.000000011586960000000000000000000000000000000000000000000000000000000000000000000000000000000000000000000000000000000000PES00010000001000000000000000000000000
201809250010000400000000000000003790000000000000000037908000000000030708579439CEMETEC S.R.L.                000000000914760000000000000000000000000000000000000000000000000000000000000000000000000000000000000000000000000000000000PES00010000001000000000000000000000000
201809250010000400000000000000003791000000000000000037918000000000030578079994Obra Social ASE Asociacion Civ000000006911520000000000000000000000000000000000000000000000000000000000000000000000000000000000000000000000000000000000PES00010000001000000000000000000000000
201809250060000400000000000000001860000000000000000018608000000000030502251291Federacion de Circulos Catolic000000003085500000000000000000000000000000000000000000000000000000000000000000000000000000000000000000000000000000000000PES00010000001000000000000000000000000
201809250080000400000000000000000108000000000000000001088000000000030642520926FUNDACION HEMATOLOGICA SARMIEN000000006664680000000000000000000000000000000000000000000000000000000000000000000000000000000000000000000000000000000000PES00010000001000000000000000000000000
201809250010000400000000000000003792000000000000000037928000000000030594950913Asoc. Civil de Estudios Superi000000001867635000000000000000000000000000000000000000000000000000000000000000000000000000000000000000000000000000000000PES00010000001000000000000000000000000
201809250010000400000000000000003794000000000000000037948000000000020100834031Miguel Angel Tomasinelli      000000006171000000000000000000000000000000000000000000000000000000000000000000000000000000000000000000000000000000000000PES00010000001000000000000000000000000
201809250010000400000000000000003795000000000000000037958000000000030654752636Laboratorio de Analisis Clinic000000001645600000000000000000000000000000000000000000000000000000000000000000000000000000000000000000000000000000000000PES00010000001000000000000000000000000
201809250060000400000000000000001861000000000000000018618000000000030621252395Hospital Pablo Soria          000000007078500000000000000000000000000000000000000000000000000000000000000000000000000000000000000000000000000000000000PES00010000001000000000000000000000000
201809250060000400000000000000001862000000000000000018628000000000030621252395Hospital Pablo Soria          000000007078500000000000000000000000000000000000000000000000000000000000000000000000000000000000000000000000000000000000PES00010000001000000000000000000000000
201809250060000400000000000000001863000000000000000018638000000000034999032089Gobierno de la Ciudad de Bs. A000000003354100000000000000000000000000000000000000000000000000000000000000000000000000000000000000000000000000000000000PES00010000001000000000000000000000000
201809250060000400000000000000001864000000000000000018648000000000030642520926FUNDACION HEMATOLOGICA SARMIEN000000004443120000000000000000000000000000000000000000000000000000000000000000000000000000000000000000000000000000000000PES00010000001000000000000000000000000
201809250010000400000000000000003796000000000000000037968000000000030545843036Hospital Aleman Asociacion Civ000000001727880000000000000000000000000000000000000000000000000000000000000000000000000000000000000000000000000000000000PES00010000001000000000000000000000000
201809250080000400000000000000000109000000000000000001098000000000034999032089Gobierno de la Ciudad de Bs. A000000003354100000000000000000000000000000000000000000000000000000000000000000000000000000000000000000000000000000000000PES00010000001000000000000000000000000
201809250080000400000000000000000110000000000000000001108000000000030642520926FUNDACION HEMATOLOGICA SARMIEN000000004443120000000000000000000000000000000000000000000000000000000000000000000000000000000000000000000000000000000000PES00010000001000000000000000000000000
201809260030000400000000000000000104000000000000000001048000000000030654752636Laboratorio de Analisis Clinic000000001645600000000000000000000000000000000000000000000000000000000000000000000000000000000000000000000000000000000000PES00010000001000000000000000000000000
201809260060000400000000000000001865000000000000000018658000000000030626983398Mrio. de Salud de la Provincia000000453967800000000000000000000000000000000000000000000000000000000000000000000000000000000000000000000000000000000000PES00010000001000000000000000000000000
201809260060000400000000000000001866000000000000000018668000000000030626983398Mrio. de Salud de la Provincia000000293333040000000000000000000000000000000000000000000000000000000000000000000000000000000000000000000000000000000000PES00010000001000000000000000000000000
201809260010000400000000000000003797000000000000000037978000000000030594950913Asoc. Civil de Estudios Superi000000034557600000000000000000000000000000000000000000000000000000000000000000000000000000000000000000000000000000000000PES00010000001000000000000000000000000
201809260010000400000000000000003798000000000000000037988000000000030546022524Hospital Privado Centro Medico000000019994040000000000000000000000000000000000000000000000000000000000000000000000000000000000000000000000000000000000PES00010000001000000000000000000000000
201809260010000400000000000000003799000000000000000037998000000000030536333416FUNDALEU  Fundacion Para Comba000000117249000000000000000000000000000000000000000000000000000000000000000000000000000000000000000000000000000000000000PES00010000001000000000000000000000000
201809260010000400000000000000003800000000000000000038008000000000030536333416FUNDALEU  Fundacion Para Comba000000011354640000000000000000000000000000000000000000000000000000000000000000000000000000000000000000000000000000000000PES00010000001000000000000000000000000
201809260010000400000000000000003801000000000000000038018000000000030545871420Sanatorio Allende S.A.        000000008228000000000000000000000000000000000000000000000000000000000000000000000000000000000000000000000000000000000000PES00010000001000000000000000000000000
201809260010000400000000000000003802000000000000000038028000000000030691314398Servicios de Medicina Transfus000000006911520000000000000000000000000000000000000000000000000000000000000000000000000000000000000000000000000000000000PES00010000001000000000000000000000000
201809260080000400000000000000000111000000000000000001118000000000030615915544Hospital de Pediatria S.A.M.I.000000011586960000000000000000000000000000000000000000000000000000000000000000000000000000000000000000000000000000000000PES00010000001000000000000000000000000
201809260060000400000000000000001867000000000000000018678000000000030626983398Mrio. de Salud de la Provincia000000007720800000000000000000000000000000000000000000000000000000000000000000000000000000000000000000000000000000000000PES00010000001000000000000000000000000
201809260010000400000000000000003803000000000000000038038000000000030536333416FUNDALEU  Fundacion Para Comba000000005677320000000000000000000000000000000000000000000000000000000000000000000000000000000000000000000000000000000000PES00010000001000000000000000000000000
201809260060000400000000000000001868000000000000000018688000000000030710847351Hospital de Alta Complejidad E000000011708928000000000000000000000000000000000000000000000000000000000000000000000000000000000000000000000000000000000PES00010000001000000000000000000000000
201809260060000400000000000000001869000000000000000018698000000000030710847351Hospital de Alta Complejidad E000000017563392000000000000000000000000000000000000000000000000000000000000000000000000000000000000000000000000000000000PES00010000001000000000000000000000000
201809260010000400000000000000003804000000000000000038048000000000030663434191Silver Cross America Inc. S.A.000000014316720000000000000000000000000000000000000000000000000000000000000000000000000000000000000000000000000000000000PES00010000001000000000000000000000000
201809270060000400000000000000001870000000000000000018708000000000030676921695Hospital Escuela Eva Peron    000000006171000000000000000000000000000000000000000000000000000000000000000000000000000000000000000000000000000000000000PES00010000001000000000000000000000000
201809030060000400000000000000001838000000000000000018388000000000030546670623UNC-Hemoderivados             000000007735000000000000000000000000000000000000000000000000000000000000000000000000000000000000000000000000000000000000PES00010000001000000000000000000000000
201809110080000400000000000000000107000000000000000001078000000000030546670623UNC-Hemoderivados             000000007735000000000000000000000000000000000000000000000000000000000000000000000000000000000000000000000000000000000000PES00010000001000000000000000000000000
201809190060000400000000000000001854000000000000000018548000000000030546670623UNC-Hemoderivados             000000009215700000000000000000000000000000000000000000000000000000000000000000000000000000000000000000000000000000000000PES00010000001000000000000000000000000
201809250010000400000000000000003793000000000000000037938000000000030594950913Asoc. Civil de Estudios Superi000000029644388000000000000000000000000000000000000000000000000000000000000000000000000000000000000000000000000000000000PES00010000001000000000000000000000000
