201807170190000500000000000000000059000000000000000000598000000000051600004062Terumo BCT Europe N.V.        000000002132923000000000000000000000000000000000000000000000000000000000000000000000000000000000000000000000000000000000PES00010000001X00000000000000000000000
201807020060000400000000000000001773000000000000000017738000000000030615915544Hospital de Pediatria S.A.M.I.000000017151750000000000000000000000000000000000000000000000000000000000000000000000000000000000000000000000000000000000PES00010000001000000000000000000000000
201807020060000400000000000000001774000000000000000017748000000000030642520926FUNDACION HEMATOLOGICA SARMIEN000000011761200000000000000000000000000000000000000000000000000000000000000000000000000000000000000000000000000000000000PES00010000001000000000000000000000000
201807020010000400000000000000003591000000000000000035918000000000030691314398Servicios de Medicina Transfus000000004573800000000000000000000000000000000000000000000000000000000000000000000000000000000000000000000000000000000000PES00010000001000000000000000000000000
201807030010000400000000000000003592000000000000000035928000000000030594950913Asoc. Civil de Estudios Superi000000008385300000000000000000000000000000000000000000000000000000000000000000000000000000000000000000000000000000000000PES00010000001000000000000000000000000
201807030010000400000000000000003593000000000000000035938000000000030645337979Alexander Fleming S.A.        000000033650100000000000000000000000000000000000000000000000000000000000000000000000000000000000000000000000000000000000PES00010000001000000000000000000000000
201807030010000400000000000000003594000000000000000035948000000000030654855168Swiss Medical S.A.            000000007759125000000000000000000000000000000000000000000000000000000000000000000000000000000000000000000000000000000000PES00010000001000000000000000000000000
201807040080000400000000000000000091000000000000000000918000000000030615915544Hospital de Pediatria S.A.M.I.000000017151750000000000000000000000000000000000000000000000000000000000000000000000000000000000000000000000000000000000PES00010000001000000000000000000000000
201807040010000400000000000000003595000000000000000035958000000000030546022524Hospital Privado Centro Medico000000004573800000000000000000000000000000000000000000000000000000000000000000000000000000000000000000000000000000000000PES00010000001000000000000000000000000
201807040060000400000000000000001775000000000000000017758000000000030642520926FUNDACION HEMATOLOGICA SARMIEN000000004083750000000000000000000000000000000000000000000000000000000000000000000000000000000000000000000000000000000000PES00010000001000000000000000000000000
201807050010000400000000000000003596000000000000000035968000000000030546022524Hospital Privado Centro Medico000000009147600000000000000000000000000000000000000000000000000000000000000000000000000000000000000000000000000000000000PES00010000001000000000000000000000000
201807050010000400000000000000003597000000000000000035978000000000030708637579Biotecnologica S.R.L.         000000032670000000000000000000000000000000000000000000000000000000000000000000000000000000000000000000000000000000000000PES00010000001000000000000000000000000
201807050010000400000000000000003598000000000000000035988000000000030714908533S.Q.M.T. S.R.L.               000000008494200000000000000000000000000000000000000000000000000000000000000000000000000000000000000000000000000000000000PES00010000001000000000000000000000000
201807050060000400000000000000001776000000000000000017768000000000030545902962Congregacion Hijas de San Cami000000002041875000000000000000000000000000000000000000000000000000000000000000000000000000000000000000000000000000000000PES00010000001000000000000000000000000
201807050010000400000000000000003599000000000000000035998000000000030546057328Sanatorio Parque S.A.         000000004083750000000000000000000000000000000000000000000000000000000000000000000000000000000000000000000000000000000000PES00010000001000000000000000000000000
201807050010000400000000000000003600000000000000000036008600000000020043986911Hector Hendler                000000001694000000000000000000000000000000000000000000000000000000000000000000000000000000000000000000000000000000000000PES00010000001000000000000000000000000
201807060010000400000000000000003601000000000000000036018000000000030545867679SOC. ITALIANA DE BENEF. EN BS.000000027769500000000000000000000000000000000000000000000000000000000000000000000000000000000000000000000000000000000000PES00010000001000000000000000000000000
201807060030000400000000000000000098000000000000000000988000000000030545867679SOC. ITALIANA DE BENEF. EN BS.000000027769500000000000000000000000000000000000000000000000000000000000000000000000000000000000000000000000000000000000PES00010000001000000000000000000000000
201807060010000400000000000000003602000000000000000036028000000000033559768869Fundacion Favaloro            000000008494200000000000000000000000000000000000000000000000000000000000000000000000000000000000000000000000000000000000PES00010000001000000000000000000000000
201807060010000400000000000000003603000000000000000036038000000000030536333416FUNDALEU  Fundacion Para Comba000000093109500000000000000000000000000000000000000000000000000000000000000000000000000000000000000000000000000000000000PES00010000001000000000000000000000000
201807060010000400000000000000003604000000000000000036048000000000030536333416FUNDALEU  Fundacion Para Comba000000007514100000000000000000000000000000000000000000000000000000000000000000000000000000000000000000000000000000000000PES00010000001000000000000000000000000
201807060060000400000000000000001777000000000000000017778000000000034999032089Gobierno de la Ciudad de Bs. A000000007724400000000000000000000000000000000000000000000000000000000000000000000000000000000000000000000000000000000000PES00010000001000000000000000000000000
201807060080000400000000000000000092000000000000000000928000000000034999032089Gobierno de la Ciudad de Bs. A000000007724400000000000000000000000000000000000000000000000000000000000000000000000000000000000000000000000000000000000PES00010000001000000000000000000000000
201807100060000400000000000000001778000000000000000017788000000000034999032089Gobierno de la Ciudad de Bs. A000000037246800000000000000000000000000000000000000000000000000000000000000000000000000000000000000000000000000000000000PES00010000001000000000000000000000000
201807100060000400000000000000001779000000000000000017798000000000034999032089Gobierno de la Ciudad de Bs. A000000004157100000000000000000000000000000000000000000000000000000000000000000000000000000000000000000000000000000000000PES00010000001000000000000000000000000
201807100080000400000000000000000093000000000000000000938000000000034999032089Gobierno de la Ciudad de Bs. A000000004157100000000000000000000000000000000000000000000000000000000000000000000000000000000000000000000000000000000000PES00010000001000000000000000000000000
201807100010000400000000000000003605000000000000000036058000000000030594950913Asoc. Civil de Estudios Superi000000001143450000000000000000000000000000000000000000000000000000000000000000000000000000000000000000000000000000000000PES00010000001000000000000000000000000
201807100060000400000000000000001780000000000000000017808000000000030642520926FUNDACION HEMATOLOGICA SARMIEN000000012904650000000000000000000000000000000000000000000000000000000000000000000000000000000000000000000000000000000000PES00010000001000000000000000000000000
201807100010000400000000000000003606000000000000000036068000000000033677533019Cetramor S.R.L                000000004573800000000000000000000000000000000000000000000000000000000000000000000000000000000000000000000000000000000000PES00010000001000000000000000000000000
201807110010000400000000000000003607000000000000000036078000000000030545867679SOC. ITALIANA DE BENEF. EN BS.000000194386500000000000000000000000000000000000000000000000000000000000000000000000000000000000000000000000000000000000PES00010000001000000000000000000000000
201807110010000400000000000000003608000000000000000036088000000000030714908533S.Q.M.T. S.R.L.               000000010372725000000000000000000000000000000000000000000000000000000000000000000000000000000000000000000000000000000000PES00010000001000000000000000000000000
201807120080000400000000000000000094000000000000000000948000000000034999032089Gobierno de la Ciudad de Bs. A000000037246800000000000000000000000000000000000000000000000000000000000000000000000000000000000000000000000000000000000PES00010000001000000000000000000000000
201807120010000400000000000000003609000000000000000036098000000000030637850144Open Trade S.A.               000000006534000000000000000000000000000000000000000000000000000000000000000000000000000000000000000000000000000000000000PES00010000001000000000000000000000000
201807120010000400000000000000003610000000000000000036108000000000030681994234Medicina Transfusional Y Hemat000000009670320000000000000000000000000000000000000000000000000000000000000000000000000000000000000000000000000000000000PES00010000001000000000000000000000000
201807120060000400000000000000001781000000000000000017818000000000034999032089Gobierno de la Ciudad de Bs. A000000059340820000000000000000000000000000000000000000000000000000000000000000000000000000000000000000000000000000000000PES00010000001000000000000000000000000
201807120080000400000000000000000095000000000000000000958000000000034999032089Gobierno de la Ciudad de Bs. A000000059340820000000000000000000000000000000000000000000000000000000000000000000000000000000000000000000000000000000000PES00010000001000000000000000000000000
201807130010000400000000000000003611000000000000000036118000000000030645337979Alexander Fleming S.A.        000000004410450000000000000000000000000000000000000000000000000000000000000000000000000000000000000000000000000000000000PES00010000001000000000000000000000000
201807130010000400000000000000003612000000000000000036128600000000020132553239Brunetti Osvaldo Jose Alfredo 000000002041875000000000000000000000000000000000000000000000000000000000000000000000000000000000000000000000000000000000PES00010000001000000000000000000000000
201807130010000400000000000000003613000000000000000036138000000000030545933566Hospital Britanico de Buenos A000000020663122000000000000000000000000000000000000000000000000000000000000000000000000000000000000000000000000000000000PES00010000001000000000000000000000000
201807130010000400000000000000003614000000000000000036148000000000030545867679SOC. ITALIANA DE BENEF. EN BS.000000194386500000000000000000000000000000000000000000000000000000000000000000000000000000000000000000000000000000000000PES00010000001000000000000000000000000
201807130010000400000000000000003615000000000000000036158000000000033585694709Clinica Privada Independencia 000000001633500000000000000000000000000000000000000000000000000000000000000000000000000000000000000000000000000000000000PES00010000001000000000000000000000000
201807130010000400000000000000003616000000000000000036168000000000030691314398Servicios de Medicina Transfus000000041140000000000000000000000000000000000000000000000000000000000000000000000000000000000000000000000000000000000000PES00010000001000000000000000000000000
201807130010000400000000000000003617000000000000000036178000000000033561330609Fundacion Para la Lucha Contra000000009147600000000000000000000000000000000000000000000000000000000000000000000000000000000000000000000000000000000000PES00010000001000000000000000000000000
201807130010000400000000000000003618000000000000000036188000000000030545933566Hospital Britanico de Buenos A000000034438536000000000000000000000000000000000000000000000000000000000000000000000000000000000000000000000000000000000PES00010000001000000000000000000000000
201807160010000400000000000000003619000000000000000036198000000000030708637579Biotecnologica S.R.L.         000000012251250000000000000000000000000000000000000000000000000000000000000000000000000000000000000000000000000000000000PES00010000001000000000000000000000000
201807160060000400000000000000001782000000000000000017828000000000030502251291Federacion de Circulos Catolic000000000408375000000000000000000000000000000000000000000000000000000000000000000000000000000000000000000000000000000000PES00010000001000000000000000000000000
201807160010000400000000000000003620000000000000000036208000000000033677533019Cetramor S.R.L                000000002041875000000000000000000000000000000000000000000000000000000000000000000000000000000000000000000000000000000000PES00010000001000000000000000000000000
201807160060000400000000000000001783000000000000000017838000000000030654855168Fundacion Swiss Medical       000000007759100000000000000000000000000000000000000000000000000000000000000000000000000000000000000000000000000000000000PES00010000001000000000000000000000000
201807170060000400000000000000001784000000000000000017848000000000030710847351Hospital de Alta Complejidad E000000008192400000000000000000000000000000000000000000000000000000000000000000000000000000000000000000000000000000000000PES00010000001000000000000000000000000
201807170060000400000000000000001785000000000000000017858000000000030621252395Hospital Pablo Soria          000000006370650000000000000000000000000000000000000000000000000000000000000000000000000000000000000000000000000000000000PES00010000001000000000000000000000000
201807170060000400000000000000001786000000000000000017868000000000030621252395Hospital Pablo Soria          000000006370650000000000000000000000000000000000000000000000000000000000000000000000000000000000000000000000000000000000PES00010000001000000000000000000000000
201807170010000400000000000000003621000000000000000036218000000000030594950913Asoc. Civil de Estudios Superi000000004573800000000000000000000000000000000000000000000000000000000000000000000000000000000000000000000000000000000000PES00010000001000000000000000000000000
201807170010000400000000000000003622000000000000000036228000000000033559768869Fundacion Favaloro            000000008494200000000000000000000000000000000000000000000000000000000000000000000000000000000000000000000000000000000000PES00010000001000000000000000000000000
201807170010000400000000000000003623000000000000000036238000000000033677533019Cetramor S.R.L                000000004573800000000000000000000000000000000000000000000000000000000000000000000000000000000000000000000000000000000000PES00010000001000000000000000000000000
201807170060000400000000000000001787000000000000000017878000000000030615915544Hospital de Pediatria S.A.M.I.000000017151750000000000000000000000000000000000000000000000000000000000000000000000000000000000000000000000000000000000PES00010000001000000000000000000000000
201807170060000400000000000000001788000000000000000017888000000000030642520926FUNDACION HEMATOLOGICA SARMIEN000000012904650000000000000000000000000000000000000000000000000000000000000000000000000000000000000000000000000000000000PES00010000001000000000000000000000000
201807170060000400000000000000001789000000000000000017898000000000030642520926FUNDACION HEMATOLOGICA SARMIEN000000004410450000000000000000000000000000000000000000000000000000000000000000000000000000000000000000000000000000000000PES00010000001000000000000000000000000
201807170010000400000000000000003624000000000000000036248000000000030546057328Sanatorio Parque S.A.         000000003267000000000000000000000000000000000000000000000000000000000000000000000000000000000000000000000000000000000000PES00010000001000000000000000000000000
201807170010000400000000000000003625000000000000000036258000000000030546017784Sanatorio de Niños S.A.       000000004083750000000000000000000000000000000000000000000000000000000000000000000000000000000000000000000000000000000000PES00010000001000000000000000000000000
201807170010000400000000000000003626000000000000000036268000000000030546022524Hospital Privado Centro Medico000000009147600000000000000000000000000000000000000000000000000000000000000000000000000000000000000000000000000000000000PES00010000001000000000000000000000000
201807180060000400000000000000001790000000000000000017908000000000034999032089Gobierno de la Ciudad de Bs. A000000046754400000000000000000000000000000000000000000000000000000000000000000000000000000000000000000000000000000000000PES00010000001000000000000000000000000
201807180060000400000000000000001791000000000000000017918000000000034999032089Gobierno de la Ciudad de Bs. A000000004065600000000000000000000000000000000000000000000000000000000000000000000000000000000000000000000000000000000000PES00010000001000000000000000000000000
201807180080000400000000000000000096000000000000000000968000000000034999032089Gobierno de la Ciudad de Bs. A000000004065600000000000000000000000000000000000000000000000000000000000000000000000000000000000000000000000000000000000PES00010000001000000000000000000000000
201807180060000400000000000000001792000000000000000017928000000000030710847351Hospital de Alta Complejidad E000000008192400000000000000000000000000000000000000000000000000000000000000000000000000000000000000000000000000000000000PES00010000001000000000000000000000000
201807180010000400000000000000003627000000000000000036278000000000030545871420Sanatorio Allende S.A.        000000002722500000000000000000000000000000000000000000000000000000000000000000000000000000000000000000000000000000000000PES00010000001000000000000000000000000
201807180010000400000000000000003628000000000000000036288000000000030545867679SOC. ITALIANA DE BENEF. EN BS.000000060802500000000000000000000000000000000000000000000000000000000000000000000000000000000000000000000000000000000000PES00010000001000000000000000000000000
201807180010000400000000000000003629000000000000000036298000000000030545867679SOC. ITALIANA DE BENEF. EN BS.000000028495500000000000000000000000000000000000000000000000000000000000000000000000000000000000000000000000000000000000PES00010000001000000000000000000000000
201807180010000400000000000000003630000000000000000036308000000000030545867679SOC. ITALIANA DE BENEF. EN BS.000000010890000000000000000000000000000000000000000000000000000000000000000000000000000000000000000000000000000000000000PES00010000001000000000000000000000000
201807180010000400000000000000003631000000000000000036318000000000030545867679SOC. ITALIANA DE BENEF. EN BS.000000035392500000000000000000000000000000000000000000000000000000000000000000000000000000000000000000000000000000000000PES00010000001000000000000000000000000
201807190080000400000000000000000097000000000000000000978000000000030615915544Hospital de Pediatria S.A.M.I.000000017151750000000000000000000000000000000000000000000000000000000000000000000000000000000000000000000000000000000000PES00010000001000000000000000000000000
201807190060000400000000000000001793000000000000000017938000000000030710847351Hospital de Alta Complejidad E000000008192400000000000000000000000000000000000000000000000000000000000000000000000000000000000000000000000000000000000PES00010000001000000000000000000000000
201807190060000400000000000000001794000000000000000017948000000000030710847351Hospital de Alta Complejidad E000000008192400000000000000000000000000000000000000000000000000000000000000000000000000000000000000000000000000000000000PES00010000001000000000000000000000000
201807190010000400000000000000003632000000000000000036328000000000030578079994Obra Social ASE Asociacion Civ000000003267000000000000000000000000000000000000000000000000000000000000000000000000000000000000000000000000000000000000PES00010000001000000000000000000000000
201807190010000400000000000000003633000000000000000036338000000000030578079994Obra Social ASE Asociacion Civ000000002450250000000000000000000000000000000000000000000000000000000000000000000000000000000000000000000000000000000000PES00010000001000000000000000000000000
201807200060000400000000000000001795000000000000000017958000000000030709027170Hospital de Alta Complejidad  000000002541000000000000000000000000000000000000000000000000000000000000000000000000000000000000000000000000000000000000PES00010000001000000000000000000000000
201807200060000400000000000000001796000000000000000017968000000000030709027170Hospital de Alta Complejidad  000000002541000000000000000000000000000000000000000000000000000000000000000000000000000000000000000000000000000000000000PES00010000001000000000000000000000000
201807200060000400000000000000001797000000000000000017978000000000030709027170Hospital de Alta Complejidad  000000002541000000000000000000000000000000000000000000000000000000000000000000000000000000000000000000000000000000000000PES00010000001000000000000000000000000
201807200060000400000000000000001798000000000000000017988000000000030709027170Hospital de Alta Complejidad  000000002541000000000000000000000000000000000000000000000000000000000000000000000000000000000000000000000000000000000000PES00010000001000000000000000000000000
201807200060000400000000000000001799000000000000000017998000000000030709027170Hospital de Alta Complejidad  000000002541000000000000000000000000000000000000000000000000000000000000000000000000000000000000000000000000000000000000PES00010000001000000000000000000000000
201807200060000400000000000000001800000000000000000018008000000000030709027170Hospital de Alta Complejidad  000000002541000000000000000000000000000000000000000000000000000000000000000000000000000000000000000000000000000000000000PES00010000001000000000000000000000000
201807200060000400000000000000001801000000000000000018018000000000030709027170Hospital de Alta Complejidad  000000002541000000000000000000000000000000000000000000000000000000000000000000000000000000000000000000000000000000000000PES00010000001000000000000000000000000
201807200060000400000000000000001802000000000000000018028000000000030709027170Hospital de Alta Complejidad  000000002541000000000000000000000000000000000000000000000000000000000000000000000000000000000000000000000000000000000000PES00010000001000000000000000000000000
201807200060000400000000000000001803000000000000000018038000000000030709027170Hospital de Alta Complejidad  000000002541000000000000000000000000000000000000000000000000000000000000000000000000000000000000000000000000000000000000PES00010000001000000000000000000000000
201807200060000400000000000000001804000000000000000018048000000000034999032089Gobierno de la Ciudad de Bs. A000000031863000000000000000000000000000000000000000000000000000000000000000000000000000000000000000000000000000000000000PES00010000001000000000000000000000000
201807200080000400000000000000000098000000000000000000988000000000034999032089Gobierno de la Ciudad de Bs. A000000031863000000000000000000000000000000000000000000000000000000000000000000000000000000000000000000000000000000000000PES00010000001000000000000000000000000
201807200060000400000000000000001805000000000000000018058000000000030709027170Hospital de Alta Complejidad  000000002541000000000000000000000000000000000000000000000000000000000000000000000000000000000000000000000000000000000000PES00010000001000000000000000000000000
201807200060000400000000000000001806000000000000000018068000000000030709027170Hospital de Alta Complejidad  000000002541000000000000000000000000000000000000000000000000000000000000000000000000000000000000000000000000000000000000PES00010000001000000000000000000000000
201807200060000400000000000000001807000000000000000018078000000000030709027170Hospital de Alta Complejidad  000000002541000000000000000000000000000000000000000000000000000000000000000000000000000000000000000000000000000000000000PES00010000001000000000000000000000000
201807200060000400000000000000001808000000000000000018088000000000030709027170Hospital de Alta Complejidad  000000002541000000000000000000000000000000000000000000000000000000000000000000000000000000000000000000000000000000000000PES00010000001000000000000000000000000
201807200060000400000000000000001809000000000000000018098000000000030709027170Hospital de Alta Complejidad  000000002541000000000000000000000000000000000000000000000000000000000000000000000000000000000000000000000000000000000000PES00010000001000000000000000000000000
201807200060000400000000000000001810000000000000000018108000000000030709027170Hospital de Alta Complejidad  000000002541000000000000000000000000000000000000000000000000000000000000000000000000000000000000000000000000000000000000PES00010000001000000000000000000000000
201807200060000400000000000000001811000000000000000018118000000000030709027170Hospital de Alta Complejidad  000000002541000000000000000000000000000000000000000000000000000000000000000000000000000000000000000000000000000000000000PES00010000001000000000000000000000000
201807230010000400000000000000001812000000000000000018128000000000030642520926FUNDACION HEMATOLOGICA SARMIEN000000012904650000000000000000000000000000000000000000000000000000000000000000000000000000000000000000000000000000000000PES00010000001000000000000000000000000
201807230010000400000000000000003634000000000000000036348000000000030545867679SOC. ITALIANA DE BENEF. EN BS.000000054450000000000000000000000000000000000000000000000000000000000000000000000000000000000000000000000000000000000000PES00010000001000000000000000000000000
201807230010000400000000000000003635000000000000000036358000000000030545867679SOC. ITALIANA DE BENEF. EN BS.000000005082000000000000000000000000000000000000000000000000000000000000000000000000000000000000000000000000000000000000PES00010000001000000000000000000000000
201807230010000400000000000000003636000000000000000036368000000000030536333416FUNDALEU  Fundacion Para Comba000000077591250000000000000000000000000000000000000000000000000000000000000000000000000000000000000000000000000000000000PES00010000001000000000000000000000000
201807230010000400000000000000003637000000000000000036378000000000030536333416FUNDALEU  Fundacion Para Comba000000007514100000000000000000000000000000000000000000000000000000000000000000000000000000000000000000000000000000000000PES00010000001000000000000000000000000
201807230010000400000000000000003638000000000000000036388000000000030714908533S.Q.M.T. S.R.L.               000000004247100000000000000000000000000000000000000000000000000000000000000000000000000000000000000000000000000000000000PES00010000001000000000000000000000000
201807300060000400000000000000001813000000000000000018138000000000034999032089Gobierno de la Ciudad de Bs. A000000003354100000000000000000000000000000000000000000000000000000000000000000000000000000000000000000000000000000000000PES00010000001000000000000000000000000
201807300080000400000000000000000099000000000000000000998000000000034999032089Gobierno de la Ciudad de Bs. A000000003354100000000000000000000000000000000000000000000000000000000000000000000000000000000000000000000000000000000000PES00010000001000000000000000000000000
201807300010000400000000000000003639000000000000000036398000000000030546022524Hospital Privado Centro Medico000000004573800000000000000000000000000000000000000000000000000000000000000000000000000000000000000000000000000000000000PES00010000001000000000000000000000000
201807300060000400000000000000001814000000000000000018148000000000030710847351Hospital de Alta Complejidad E000000008192400000000000000000000000000000000000000000000000000000000000000000000000000000000000000000000000000000000000PES00010000001000000000000000000000000
201807300010000400000000000000003640000000000000000036408000000000030646918622Fundacion Sanidad Naval Argent000000011859210000000000000000000000000000000000000000000000000000000000000000000000000000000000000000000000000000000000PES00010000001000000000000000000000000
201807300010000400000000000000003641000000000000000036418000000000030545933566Hospital Britanico de Buenos A000000039407280000000000000000000000000000000000000000000000000000000000000000000000000000000000000000000000000000000000PES00010000001000000000000000000000000
201807300010000400000000000000003642000000000000000036428000000000030646918622Fundacion Sanidad Naval Argent000000005929605000000000000000000000000000000000000000000000000000000000000000000000000000000000000000000000000000000000PES00010000001000000000000000000000000
201807300010000400000000000000003643000000000000000036438000000000030545933566Hospital Britanico de Buenos A000000020438352000000000000000000000000000000000000000000000000000000000000000000000000000000000000000000000000000000000PES00010000001000000000000000000000000
201807300010000400000000000000003644000000000000000036448000000000030545843036Hospital Aleman Asociacion Civ000000026462700000000000000000000000000000000000000000000000000000000000000000000000000000000000000000000000000000000000PES00010000001000000000000000000000000
201807300060000400000000000000001815000000000000000018158000000000030626983398Mrio. de Salud de la Provincia000000149978400000000000000000000000000000000000000000000000000000000000000000000000000000000000000000000000000000000000PES00010000001000000000000000000000000
201807300010000400000000000000003645000000000000000036458000000000030663434191Silver Cross America Inc. S.A.000000004737150000000000000000000000000000000000000000000000000000000000000000000000000000000000000000000000000000000000PES00010000001000000000000000000000000
201807300010000400000000000000003646000000000000000036468000000000030545867679SOC. ITALIANA DE BENEF. EN BS.000000021780000000000000000000000000000000000000000000000000000000000000000000000000000000000000000000000000000000000000PES00010000001000000000000000000000000
201807300010000400000000000000003647000000000000000036478000000000030645337979Alexander Fleming S.A.        000000004410450000000000000000000000000000000000000000000000000000000000000000000000000000000000000000000000000000000000PES00010000001000000000000000000000000
201807310010000400000000000000003648000000000000000036488000000000030708637579Biotecnologica S.R.L.         000000035090000000000000000000000000000000000000000000000000000000000000000000000000000000000000000000000000000000000000PES00010000001000000000000000000000000
201807310010000400000000000000003649000000000000000036498000000000030708637579Biotecnologica S.R.L.         000000038417500000000000000000000000000000000000000000000000000000000000000000000000000000000000000000000000000000000000PES00010000001000000000000000000000000
201807310060000400000000000000001816000000000000000018168000000000030626983398Mrio. de Salud de la Provincia000000007720800000000000000000000000000000000000000000000000000000000000000000000000000000000000000000000000000000000000PES00010000001000000000000000000000000
201807310060000400000000000000001817000000000000000018178000000000034999032089Gobierno de la Ciudad de Bs. A000000026832800000000000000000000000000000000000000000000000000000000000000000000000000000000000000000000000000000000000PES00010000001000000000000000000000000
201807310010000400000000000000003650000000000000000036508000000000030594950913Asoc. Civil de Estudios Superi000000026680500000000000000000000000000000000000000000000000000000000000000000000000000000000000000000000000000000000000PES00010000001000000000000000000000000
201807310010000400000000000000003651000000000000000036518000000000030594950913Asoc. Civil de Estudios Superi000000030492000000000000000000000000000000000000000000000000000000000000000000000000000000000000000000000000000000000000PES00010000001000000000000000000000000
